:100000000C942A000C9447000C9447000C94470071
:100010000C940B040C942F030C9447000C94470091
:100020000C9447000C9447000C94D3030C948B025F
:100030000C9447000C9447000C9447000C94470024
:100040000C9447000C9447000C9447000C94470014
:100050000C94470011241FBECFE5D8E0DEBFCDBF12
:1000600010E0A0E6B0E0E0EBF8E002C005900D92F1
:10007000A237B107D9F720E0A2E7B0E001C01D9296
:10008000AC3AB207E1F70E9452000C9456040C946B
:1000900000000E94D60042E650E060E081E00E944D
:1000A0001301FFCF0E94490080E090E0089561E0D5
:1000B0008BE10E94D80160E08BE10E94D801089595
:1000C000CF93C82F60E089E10E94D80160E08AE107
:1000D0000E94D8019C2F907F8BB38F70892B8BBB94
:1000E0000E945700C295C07F8BB38F70C82BCBBBCB
:1000F0000E94570028E230E040E050E060E070E00D
:1001000080E090E00E945201CF910895813029F45F
:1001100080E8860F0E9460000895823029F480EC08
:10012000860F0E9460000895833029F480E9860FCD
:100130000E9460000895843021F480ED860F0E94B3
:1001400060000895CF93C82F61E089E10E94D80133
:1001500060E08AE10E94D8019C2F907F8BB38F7062
:10016000892B8BBB0E945700C295C07F8BB38F70C9
:10017000C82BCBBB0E94570028E230E040E050E0A3
:1001800060E070E080E090E00E945201CF9108951D
:1001900081E00E94600025E030E040E050E060E057
:1001A00070E080E090E00E941E01089541E060EF61
:1001B00083E00E944E0261E08AE10E94840161E0D6
:1001C00089E10E94840161E08BE10E94840124E6C0
:1001D00030E040E050E060E070E080E090E00E94BD
:1001E0001E0182E00E94600088E20E9460008CE0B4
:1001F0000E9460000E94C80008950F931F93CF9340
:10020000FC018081882359F08F01C0E00E94A20088
:10021000CF5FF801EC0FF11D80818111F7CFCF91F5
:100220001F910F910895CF93DF93EA010E948600FA
:10023000CE010E94FD00DF91CF910895FF920F93B0
:100240001F93CF93DF93F22E032F142FD52FC62F9A
:10025000B72FF82FE92FA0E00E944A04E9F08FECB5
:1002600097E00197F1F700C000002F2D302F412FAC
:100270005D2F6C2F7B2F8F2F9E2FAFEF0E943504A9
:10028000F22E032F142FD52FC62FB72FF82FE92FBB
:10029000A0E00E944A0419F7DF91CF911F910F91BE
:1002A000FF900895FF920F931F93CF93DF93F22E49
:1002B000032F142FD52FC62FB72FF82FE92FA0E02B
:1002C0000E944A04D9F082E08A95F1F700C02F2DF0
:1002D000302F412F5D2F6C2F7B2F8F2F9E2FAFEF55
:1002E0000E943504F22E032F142FD52FC62FB72FBF
:1002F000F82FE92FA0E00E944A0429F7DF91CF915F
:100300001F910F91FF900895EF92FF920F931F930B
:10031000803208F045C0611121C0E82FE695E695CE
:10032000E6952E2F30E0F901EE0FFF1FE20FF31FCD
:1003300021A9877041E050E060E070E07A018B0114
:1003400004C0EE0CFF1C001F111F8A95D2F7D801C4
:10035000C7018095822381AB80E025C0613011F513
:10036000E82FE695E695E6952E2F30E0F901EE0FA1
:10037000FF1FE20FF31F21A9877041E050E060E00A
:1003800070E07A018B0104C0EE0CFF1C001F111FEE
:100390008A95D2F7D801C701822B81AB80E003C0D8
:1003A00082E001C083E01F910F91FF90EF900895CC
:1003B000EF92FF920F931F93803208F067C0611194
:1003C00021C0E82FE695E695E6952E2F30E0F9015D
:1003D000EE0FFF1FE20FF31F22A9877041E050E0EC
:1003E00060E070E07A018B0104C0EE0CFF1C001F7E
:1003F000111F8A95D2F7D801C7018095822382AB5D
:1004000080E047C0613001F5E82FE695E695E69576
:100410002E2F30E0F901EE0FFF1FE20FF31F22A98C
:10042000877041E050E060E070E07A018B0104C029
:10043000EE0CFF1C001F111F8A95D2F7D801C701CF
:10044000822B82AB80E025C0623011F5E82FE69563
:10045000E695E6952E2F30E0F901EE0FFF1FE20F33
:10046000F31F22A9877041E050E060E070E07A015C
:100470008B0104C0EE0CFF1C001F111F8A95D2F7E0
:10048000D801C701822782AB80E003C082E001C0AF
:1004900084E01F910F91FF90EF9008958430D8F47D
:1004A00041110CC090E0FC01EE0FFF1FE80FF91F97
:1004B00081A96095682361AB80E00895413069F4BB
:1004C00090E0FC01EE0FFF1FE80FF91F81A9682BD8
:1004D00061AB80E0089582E0089583E00895811182
:1004E0000CC0E6E9F0E010821182128213821482BD
:1004F00015821682178212BE0895813059F4E6E9FA
:10050000F0E01086118612861386148615861686EC
:10051000178614BC08951F920F920FB60F921124E4
:10052000AF92BF92CF92DF92EF92FF920F931F9301
:100530002F933F934F935F936F937F938F939F93EB
:10054000AF93BF93EF93FF9388B7816088BFE6E9CD
:10055000F0E02081318142815381648175818681FF
:100560009781A1E00E943504208331834283538325
:10057000648375838683978320813181428153818F
:100580006481758186819781E0916000F0E0EE0FD3
:10059000FF1FEE0FFF1FEE0FFF1FEA58FF4FA08057
:1005A000B180C280D380E480F580068117810E94EB
:1005B0004104E1F5E6E9F0E0108211821282138233
:1005C0001482158216821782E091A600F091A7008E
:1005D000099580916000811113C081E080936000D3
:1005E000E6E7F0E090852185228523852485258511
:1005F0002685278528E1929F800D112482BF16C091
:1006000080916000813091F410926000E6E7F0E0A4
:1006100090818181828183818481858186818781A6
:1006200081E028E1929F800D112482BFFF91EF911C
:10063000BF91AF919F918F917F916F915F914F91FA
:100640003F912F911F910F91FF90EF90DF90CF90EE
:10065000BF90AF900F900FBE0F901F9018951F92F4
:100660000F920FB60F921124AF92BF92CF92DF92EA
:10067000EF92FF920F931F932F933F934F935F93AC
:100680006F937F938F939F93AF93BF93EF93FF935A
:1006900088B7806488BFE6E9F0E02085318542852F
:1006A00053856485758586859785A1E00E9435040C
:1006B0002087318742875387648775878687978726
:1006C0002085318542855385648575858685978526
:1006D000E0916100F0E0EE0FFF1FEE0FFF1FEE0F45
:1006E000FF1FEA57FF4FA080B180C280D380E48013
:1006F000F580068117810E944104E1F5E6E9F0E00A
:10070000108611861286138614861586168617861D
:10071000E091A800F091A9000995809161008111F4
:1007200013C081E080936100E6E7F0E0908D218DB9
:10073000228D238D248D258D268D278D28E1929F56
:10074000800D112482BF16C080916100813091F428
:1007500010926100E6E7F0E09089818982898389BF
:10076000848985898689878981E028E1929F800D27
:10077000112484BDFF91EF91BF91AF919F918F9113
:100780007F916F915F914F913F912F911F910F91A9
:10079000FF90EF90DF90CF90BF90AF900F900FBE83
:1007A0000F901F9018951F920F920FB60F92112461
:1007B0002F933F934F935F936F937F938F939F9369
:1007C000AF93BF93EF93FF9388B7826088BF809108
:1007D000AA009091AB00892B41F0E091AA00F09122
:1007E000AB00099580E00E946F02E0917200F091E9
:1007F00073000995FF91EF91BF91AF919F918F91F8
:100800007F916F915F914F913F912F910F900FBE0C
:100810000F901F9018951F920F920FB60F921124F0
:100820002F933F934F935F936F937F938F939F93F8
:10083000AF93BF93EF93FF9388B7806888BFE09131
:100840007400F09175000995FF91EF91BF91AF9100
:100850009F918F917F916F915F914F913F912F91D8
:100860000F900FBE0F901F9018950024A7FD0094C5
:100870002A0F301D401D501D601D701D801D901DD4
:1008800008952A153B054C055D056E057F0580071B
:10089000910708950024A7FD00942A17300540050C
:1008A000500560057005800590050895F894FFCF08
:1008B000010057656C636F6D6520537072696E74CB
:0208C0007300C3
:00000001FF
