S0180000456D6265646465645F4C6576656C5F312E737265631B
S11300000C942A000C9447000C9447000C9447006D
S11300100C94C20A0C9479090C9447000C94470080
S11300200C9447000C9447000C948A0A0C946808BA
S11300300C9447000C9447000C9447000C94470020
S11300400C9447000C9447000C9447000C94470010
S11300500C94470011241FBECFE5D8E0DEBFCDBF0E
S113006010E0A0E6B0E0E2E5F9E102C005900D92EF
S1130070A437B107D9F710E0A4E7B0E001C01D929E
S1130080A03BB107E1F70E9482010C94A70C0C94E9
S11300900000CF93DF930F92CDB7DEB7198281E0D2
S11300A00E949F0082E00E943001789481E0BE01AA
S11300B06F5F7F4F0E94CC0089818130B9F782E065
S11300C00E94700180E04CE251E060E070E00E9428
S11300D06E04ECCF81E00E943001789481E00E94AC
S11300E0700180E044EF51E060E070E00E946E0433
S11300F081E00E94700180E04CE251E060E070E039
S11301000E946E04EBCF80E00E947001089580E0AD
S11301100E94300180E063E870E024EF31E040E0C9
S113012050E00F2EFCE2EF2EF1E0FF2EF0E00F2F57
S1130130F0E01F2FF02D0E94EC067894FFCFEF9291
S1130140FF920F931F93CF938230F8F4E82EFF248D
S11301508701000F111FF801E05AFF4F808160E012
S11301600E94B201C82FF801EF59FF4F80818130FE
S113017039F4F801E05AFF4F80810E948701C82BAF
S113018081E0CC2319F480E001C081E0CF911F917C
S11301900F91FF90EF900895CF92DF92EF92FF922C
S11301A00F931F93CF93DF9300D0CDB7DEB77B01BE
S11301B0823008F047C06115710509F445C0C82EA6
S11301C0DD248601000F111F005A1F4FD8018C91A6
S11301D0BE016F5F7F4F0E9477028FE798E3A1E033
S11301E081509040A040E1F700C00000D8018C91FC
S11301F0BE016E5F7F4F0E9477028A8199818917C1
S1130200E9F4F601EE0FFF1FEF59FF4F9081992398
S113021051F4882319F4F701108217C081E0D70143
S11302208C9380E012C0813021F4F701108280E0C9
S11302300CC081E0D7018C9380E007C0F7011082E5
S113024080E003C081E001C082E00F900F90DF9155
S1130250CF911F910F91FF90EF90DF90CF90089571
S11302601F93CF93DF93843090F4C82FD0E0CC5900
S1130270DF4F888161E00E94B201182F888160E01D
S11302800E940402182B81E019F480E001C081E08F
S1130290DF91CF911F910895843068F4E82FF0E046
S11302A0EC59FF4F808161E00E94040291E08823B1
S11302B019F490E001C091E0892F0895843068F426
S11302C0E82FF0E0EC59FF4F808160E00E940402C7
S11302D091E0882319F490E001C091E0892F0895FA
S11302E0843068F4E82FF0E0EC59FF4F808162E03D
S11302F00E94040291E0882319F490E001C091E087
S1130300892F08950E946A0080E090E00895EF929A
S1130310FF920F931F938032F8F4282F2695269589
S1130320269530E0F901EE0FFF1FE20FF31F22A91B
S1130330877041E050E060E070E07A018B0104C016
S1130340EE0CFF1C001F111F8A95D2F7D801C701BC
S1130350822B82AB80E001C082E01F910F91FF905D
S1130360EF900895EF92FF920F931F93803208F05D
S113037043C0662301F5282F26952695269530E05F
S1130380F901EE0FFF1FE20FF31F21A9877041E06F
S113039050E060E070E07A018B0104C0EE0CFF1CB9
S11303A0001F111F8A95D2F7D801C70180958223B7
S11303B081AB80E024C0613009F5282F269526956D
S11303C0269530E0F901EE0FFF1FE20FF31F21A97C
S11303D0877041E050E060E070E07A018B0104C076
S11303E0EE0CFF1C001F111F8A95D2F7D801C7011C
S11303F0822B81AB80E003C082E001C083E01F91C7
S11304000F91FF90EF900895EF92FF920F931F9337
S1130410803208F064C0662301F5282F26952695BE
S1130420269530E0F901EE0FFF1FE20FF31F22A91A
S1130430877041E050E060E070E07A018B0104C015
S1130440EE0CFF1C001F111F8A95D2F7D801C701BB
S11304508095822382AB80E045C06130F9F4282F77
S113046026952695269530E0F901EE0FFF1FE20F41
S1130470F31F22A9877041E050E060E070E07A0148
S11304808B0104C0EE0CFF1C001F111F8A95D2F7CC
S1130490D801C701822B82AB80E024C0623009F509
S11304A0282F26952695269530E0F901EE0FFF1F9B
S11304B0E20FF31F22A9877041E050E060E070E092
S11304C07A018B0104C0EE0CFF1C001F111F8A95DA
S11304D0D2F7D801C701822782AB80E003C082E053
S11304E001C084E01F910F91FF90EF900895803236
S11304F0E8F461157105E1F0282F269526952695D7
S113050030E0A901440F551F240F351FF90120A91C
S113051030E08770A90102C0559547958A95E2F7A6
S1130520CA018170FB01808380E0089582E0089510
S113053085E00895843058F490E09C01220F331F25
S1130540820F931F2FEFFC0122AB80E0089582E01D
S113055008958430C8F4662351F490E09C01220F7E
S1130560331F820F931FFC0111AA80E008956130AC
S113057069F490E09C01220F331F820F931F2FEF29
S1130580FC0121AB80E0089582E0089583E00895A2
S1130590843030F5662351F490E09C01220F331F20
S11305A0820F931FFC0112AA80E00895613059F470
S11305B090E09C01220F331F820F931F2FEFFC0149
S11305C022AB80E00895623069F490E0FC01EE0F04
S11305D0FF1FE80FF91F82A9809582AB80E0089580
S11305E082E0089584E00895843078F461157105FB
S11305F071F090E09C01220F331F820F931FFC01C6
S113060080A9FB01808380E0089582E0089585E05D
S11306100895843058F490E0FC01EE0FFF1FE80FBA
S1130620F91F82A9682B62AB80E0089582E00895E7
S11306308430D8F4442361F490E0FC01EE0FFF1FF2
S1130640E80FF91F81A96095682361AB80E00895E4
S1130650413069F490E0FC01EE0FFF1FE80FF91F31
S113066081A9682B61AB80E0089582E0089583E05E
S11306700895843040F5442361F490E0FC01EE0FCA
S1130680FF1FE80FF91F82A96095682362AB80E021
S11306900895413059F490E0FC01EE0FFF1FE80F7C
S11306A0F91F82A9682B62AB80E00895423069F497
S11306B090E0FC01EE0FFF1FE80FF91F82A96827E5
S11306C062AB80E0089582E0089584E00895843068
S11306D080F44115510579F090E09C01220F331FFD
S11306E0820F931FFC0180A96823FA01608380E0D4
S11306F0089582E0089585E0089580916F0062E096
S11307000E940402089580916C0062E00E94040239
S11307100895EF92FF920F931F93CF93DF9300D02E
S113072000D00F92CDB7DEB7823040F5E82EFF241B
S1130730F701EE0FFF1FEE0DFF1DE459FF4F8081FF
S113074061E00E94B2018823D9F48701000F111FD0
S1130750F801E859FF4F608171810E0D1F1D045986
S11307601F4FF80181810E940308F80182818B8365
S1130770CE0101960E94910680E003C081E001C091
S113078082E00F900F900F900F900F90DF91CF9118
S11307901F910F91FF90EF900895CF93DF938230D4
S11307A088F490E0EC01CC0FDD1FC80FD91FC459A9
S11307B0DF4F89810E941304888160E00E94040253
S11307C080E001C081E0DF91CF910895CF93DF9362
S11307D0823088F490E0EC01CC0FDD1FC80FD91FE4
S11307E0C459DF4F89814A810E94110889810E947E
S11307F0FF0380E001C081E0DF91CF910895882359
S113080041F49091AE00977083B7887F892B83BFA2
S11308100895813039F49091AF00977085B5887F41
S1130820892B85BD0895882321F483B7887F83BFEE
S11308300895813019F485B5887F85BD08950F9397
S11308401F93CF93DF93EC01062F142F0097C1F071
S113085080E00E94130483B7886083BF83B78F7BD3
S113086083BFD093AD00C093AC000CBF89B7826046
S113087089BF177083B7887F182B13BF80E001C02E
S113088081E0DF91CF911F910F910895882391F416
S1130890109298001092990010929A0010929B0066
S11308A010929C0010929D0010929E0010929F0046
S11308B012BE0895813089F41092A0001092A10014
S11308C01092A2001092A3001092A4001092A5000E
S11308D01092A6001092A70014BC08954F925F9244
S11308E06F927F928F929F92AF92BF92CF92DF923C
S11308F0EF92FF920F931F93CF93DF936A017B01D3
S1130900882309F0E9C083B7877F83BF83B78F7BD0
S113091083BF83B78F7C83BF80E00E94460489B77E
S1130920816089BF83B7887F816083BFC701B601B7
S113093020E43FE140E050E00E94880CDC01CB0160
S11309403C014D01AA24BB2465010F2EF8E9EF2ECA
S1130950F0E0FF2EF02DC1E0D0E0F70120813181DD
S113096042815381648175818681978112B708E041
S11309700E94EC0A120FFC2F121708F0FD2F032F10
S1130980ED2F3F0F2C2F301708F02D2FE22B032FC4
S1130990B42F2D2F4E0FEC2F4B1708F0ED2F2E2BCD
S11309A0B42FA52FED2F520F2C2F5A1708F02D2FEF
S11309B0E22BA52FF62F2D2F6E0FEC2F6F1708F0BB
S11309C0ED2F2E2BF62FE72F5D2E720F2C2F7E1777
S11309D008F02D2F522AE72F282F4D2E850D5C2E3F
S11309E0821708F05D2E4528282F940D512E53941C
S11309F04C2E511608F04D2E1C2F301708F01D2FC9
S1130A00430E0C2F431608F00D2F102B342D0C2FF2
S1130A104B1708F00D2F140FBC2F141708F0BD2F1F
S1130A200B2B412FBC2F5A1708F0BD2F050FAC2FED
S1130A30051708F0AD2FBA2B502FAC2F6F1708F005
S1130A40AD2FB60FFC2FB61708F0FD2FAF2B6B2F71
S1130A50FC2F7E1708F0FD2FA70FEC2FA71708F027
S1130A60ED2FFE2B7A2F4C2E821708F04D2EF80F07
S1130A702C2FF81708F02D2F422A940D9D1508F4F9
S1130A806CCFD91609F00CC1FC1508F466CFCF164B
S1130A9009F006C17B1508F460CFB71609F000C150
S1130AA06A1508F45ACFA61609F0FAC0591508F4C5
S1130AB054CF951609F0F4C0481508F44ECF8416A7
S1130AC009F0EEC0371508F448CF731609F0E8C0F2
S1130AD0561408F442CFE4C0813009F0E1C085B572
S1130AE0877F85BD85B58F7B85BD85B58F7C85BDAD
S1130AF081E00E94460489B7806489BF85B5887FF8
S1130B00816085BDC701B60120E43FE140E050E0CB
S1130B100E94880CDC01CB013C014D01AA24BB24BA
S1130B2065010F2EF0EAEF2EF0E0FF2EF02DC1E06C
S1130B30D0E0F70120813181428153816481758144
S1130B408681978114B508E00E94EC0A120FFC2FED
S1130B50121708F0FD2F032FED2F3F0F2C2F301706
S1130B6008F02D2FE22B032FB42F2D2F4E0FEC2F37
S1130B704B1708F0ED2F2E2BB42FA52FED2F520F6E
S1130B802C2F5A1708F02D2FE22BA52FF62F2D2FDF
S1130B906E0FEC2F6F1708F0ED2F2E2BF62FE72F8B
S1130BA05D2E720F2C2F7E1708F02D2F522AE72F5F
S1130BB0282F4D2E850D5C2E821708F05D2E4528BA
S1130BC0282F940D512E53944C2E511608F04D2E6F
S1130BD01C2F301708F01D2F430E0C2F431608F05E
S1130BE00D2F102B342D0C2F4B1708F00D2F140F35
S1130BF0BC2F141708F0BD2F0B2B412FBC2F5A17F5
S1130C0008F0BD2F050FAC2F051708F0AD2FBA2B38
S1130C10502FAC2F6F1708F0AD2FB60FFC2FB6175F
S1130C2008F0FD2FAF2B6B2FFC2F7E1708F0FD2F44
S1130C30A70FEC2FA71708F0ED2FFE2B7A2F4C2EC1
S1130C40821708F04D2EF80F2C2FF81708F02D2FCF
S1130C50422A940D9D1508F46CCFD91609F5FC159C
S1130C6008F467CFCF16E1F47B1508F462CFB7160A
S1130C70B9F46A1508F45DCFA61691F4591508F471
S1130C8058CF951669F4481508F453CF841641F4E7
S1130C90371508F44ECF731619F4561408F449CFD7
S1130CA0DF91CF911F910F91FF90EF90DF90CF9044
S1130CB0BF90AF909F908F907F906F905F904F9078
S1130CC008958823B1F40E94130480E00E9446042E
S1130CD089B78D7F89BF89B78E7F89BF83B7877FA7
S1130CE083BF83B78F7B83BF83B78F7C83BF1CBED7
S1130CF008958130A9F40E94130481E00E944604FF
S1130D0089B78F7789BF89B78F7B89BF85B5877F7F
S1130D1085BD85B58F7B85BD85B58F7C85BD13BCB1
S1130D200895CF93DF93EC01009709F44FC08881B5
S1130D30882329F50E94130488810E94460499811E
S1130D40990F990F987083B7877F892B83BF83B7D7
S1130D508F7B83BF83B7887F83BF9B81937092957A
S1130D60907F83B78F7C892B83BF8C818CBFE88174
S1130D70F0E0E255FF4F8A81808380E02AC0813011
S1130D8039F50E94130488810E9446049981990FC1
S1130D90990F987085B5877F892B85BD85B58F7B25
S1130DA085BD85B5887F85BD9B8193709295907F25
S1130DB085B58F7C892B85BD8C8183BDE881F0E06E
S1130DC0E255FF4F8A81808380E003C081E001C047
S1130DD082E0DF91CF910895EF92FF920F931F93DA
S1130DE0CF93DF93A82FFB01CA01B901309709F40F
S1130DF0AFC0AA2309F055C023B7277F23BF23B769
S1130E002F7B23BF23B72F7C23BFF093A900E0934C
S1130E10A800109298001092990010929A001092D3
S1130E209B0010929C0010929D0010929E001092C4
S1130E309F0028EE33E040E050E00E94880CDC0183
S1130E40CB01892F9A2FAB2FBB27809378009093E7
S1130E507900A0937A00B0937B0010927C001092EA
S1130E607D0010927E0010927F00C801B7010E949D
S1130E70880C072F182F292F3327E0E8F0E0009380
S1130E808000118322833383148215821682178291
S1130E9089B7816089BF83B7887F856083BF80E01D
S1130EA05AC0A13009F056C025B5277F25BD25B508
S1130EB02F7B25BD25B52F7C25BDF093AB00E0939A
S1130EC0AA001092A0001092A1001092A200109209
S1130ED0A3001092A4001092A5001092A6001092F4
S1130EE0A70028EE33E040E050E00E94880CDC01CB
S1130EF0CB01892F9A2FAB2FBB2780938800909327
S1130F008900A0938A00B0938B0010928C001092F9
S1130F108D0010928E0010928F00C801B7010E94BC
S1130F20880C072F182F292F3327E0E9F0E00093CE
S1130F3090001183228333831482158216821782D0
S1130F4089B7806489BF85B5876085BD80E003C0AB
S1130F5081E001C080E0DF91CF911F910F91FF905C
S1130F60EF900895882339F583B7877F83BF83B7CC
S1130F70806483BF643618F08FEF8CBF14C070E0B8
S1130F8080E090E02FEF30E040E050E00E94880CD9
S1130F900E94FA0B20E030E048EC52E40E94660B19
S1130FA00E94CE0B6CBF89B78D7F89BF83B7887FC2
S1130FB0856083BF0895813029F585B5877F85BD18
S1130FC085B5806485BD643618F08FEF83BD14C089
S1130FD070E080E090E02FEF30E040E050E00E94CD
S1130FE0880C0E94FA0B20E030E048EC52E40E94A6
S1130FF0660B0E94CE0B63BD89B78F7789BF85B519
S1131000876085BD0895882329F4709375006093E3
S113101074000895813021F4709377006093760012
S11310200895CF93C42F882341F583B7877F83BF67
S113103083B7806483BF643618F08FEF8CBF14C00D
S113104070E080E090E02FEF30E040E050E00E945C
S1131050880C0E94FA0B20E030E048EC52E40E9435
S1131060660B0E94CE0B6CBF89B78D7F89BFC7709A
S113107083B7887FC82BC3BF29C0813039F585B5B4
S1131080877F85BD85B5806485BD643618F08FEF94
S113109083BD14C070E080E090E02FEF30E040E0CA
S11310A050E00E94880C0E94FA0B20E030E048ECEB
S11310B052E40E94660B0E94CE0B63BD89B78F7702
S11310C089BFC77085B5887FC82BC5BDCF910895EA
S11310D01F920F920FB60F921124FF920F931F933A
S11310E02F933F934F935F936F937F938F939F932C
S11310F0AF93BF93CF93DF93EF93FF9388B7816050
S113110088BF509198004091990030919A002091A5
S11311109B0090919C00F0919D00E0919E00A09115
S11311209F00752F7F5F61E0751708F060E0842FE2
S113113050E0640F41E0681708F040E0542B832F1F
S113114040E0530F31E0581708F030E0432B822F72
S113115030E0420F21E0481708F020E0322B892FBD
S113116020E0390F91E0381708F090E0292B8F2FF9
S113117090E02F0FF1E0281708F0F0E09F2BFE2FEE
S113118080E09E0FE1E09F1708F0E0E08E2B8A0FCD
S1131190709398006093990050939A0040939B0039
S11311A030939C0020939D0090939E0080939F0019
S11311B0909198003091990050919A0070919B0001
S11311C0F0909C0010919D00C0919E00A0919F0002
S11311D0E0917200F0E0EE0FFF1FEE0FFF1FEE0F25
S11311E0FF1FE858FF4F8081218142816381048180
S11311F0D581B681E781981709F065C0321709F0E7
S113120062C0541709F05FC0761709F05CC0F0168D
S113121009F059C01D1709F056C0CB1709F053C087
S1131220AE1709F050C010929800109299001092D5
S11312309A0010929B0010929C0010929D001092B4
S11312409E0010929F00E091A800F091A9000995DA
S1131250809172008823D1F481E080937200209100
S113126080009091810090918200909183009091F0
S1131270840090918500909186009091870098EE6B
S1131280299F902D1124891B82BF1DC0809172005B
S11312908130C9F4109272009091780080917900A5
S11312A080917A0080917B0080917C0080917D0008
S11312B080917E0080917F0088EE989F902D11246C
S11312C081E0891B82BFFF91EF91DF91CF91BF91A4
S11312D0AF919F918F917F916F915F914F913F91CA
S11312E02F911F910F91FF900F900FBE0F901F90A1
S11312F018951F920F920FB60F921124FF920F931D
S11313001F932F933F934F935F936F937F938F9389
S11313109F93AF93BF93CF93DF93EF93FF9388B7DC
S1131320806488BF5091A0004091A1003091A20038
S11313302091A3009091A400F091A500E091A60053
S1131340A091A700752F7F5F61E0751708F060E03A
S1131350842F50E0640F41E0681708F040E0542BFC
S1131360832F40E0530F31E0581708F030E0432B4F
S1131370822F30E0420F21E0481708F020E0322BA2
S1131380892F20E0390F91E0381708F090E0292BDD
S11313908F2F90E02F0FF1E0281708F0F0E09F2B3B
S11313A0FE2F80E09E0FE1E09F1708F0E0E08E2B17
S11313B08A0F7093A0006093A1005093A200409301
S11313C0A3003093A4002093A5009093A6008093DB
S11313D0A7009091A0003091A1005091A2007091BB
S11313E0A300F090A4001091A500C091A600A091C4
S11313F0A700E0917300F0E0EE0FFF1FEE0FFF1F58
S1131400EE0FFF1FE857FF4F8081218142816381E6
S11314100481D581B681E781981709F065C0321738
S113142009F062C0541709F05FC0761709F05CC078
S1131430F01609F059C01D1709F056C0CB1709F072
S113144053C0AE1709F050C01092A0001092A10032
S11314501092A2001092A3001092A4001092A50072
S11314601092A6001092A700E091AA00F091AB00A0
S11314700995809173008823D1F481E080937300EF
S113148020919000909191009091920090919300FE
S1131490909194009091950090919600909197006E
S11314A098EE299F902D1124891B82BF1DC0809125
S11314B073008130C9F41092730090918800809178
S11314C0890080918A0080918B0080918C008091AA
S11314D08D0080918E0080918F0088EE989F902DD2
S11314E0112481E0891B84BDFF91EF91DF91CF919D
S11314F0BF91AF919F918F917F916F915F914F9128
S11315003F912F911F910F91FF900F900FBE0F905D
S11315101F9018951F920F920FB60F9211242F93BC
S11315203F934F935F936F937F938F939F93AF9367
S1131530BF93EF93FF9388B7826088BF8091AC001C
S11315409091AD00009741F0E091AC00F091AD00B6
S1131550099580E00E944604E0917400F0917500C2
S11315600995FF91EF91BF91AF919F918F917F91D9
S11315706F915F914F913F912F910F900FBE0F90FC
S11315801F9018951F920F920FB60F9211242F934C
S11315903F934F935F936F937F938F939F93AF93F7
S11315A0BF93EF93FF9388B7806888BFE09176007C
S11315B0F09177000995FF91EF91BF91AF919F91C1
S11315C08F917F916F915F914F913F912F910F90E8
S11315D00FBE0F901F901895CF92DF92EF92FF925B
S11315E00F93CF93DF93CDB7DEB760970FB6F89420
S11315F0DEBF0FBECDBF002309F45AC029873A8746
S11316004B875C876D877E878F87988B80E2801BF2
S113161049855A856B857C851816B4F019821A821F
S11316201B821C82992787FD9095909581959F4FE9
S113163004C0440F551F661F771F8A95D2F74D8348
S11316405E836F8378872CC06A017B01002E04C0FF
S1131650CC0CDD1CEE1CFF1C0A94D2F7C982DA8282
S1131660EB82FC826A017B0104C0F694E794D79470
S1131670C7948A95D2F7D701C6014D855E856F85DB
S1131680788904C0440F551F661F771F0A95D2F747
S1131690842B952BA62BB72B8D839E83AF83B88782
S11316A029813A814B815C816D817E818F8198850E
S11316B060960FB6F894DEBF0FBECDBFDF91CF9119
S11316C00F91FF90EF90DF90CF9008950CD0E6C07B
S11316D0DED040F0D5D030F021F45F3F19F0C7C020
S11316E0511110C1CAC0EBD098F39923C9F3552303
S11316F0B1F3951B550BBB27AA2762177307840701
S113170038F09F5F5F4F220F331F441FAA1FA9F3B6
S113171033D00E2E3AF0E0E830D091505040E695A8
S1131720001CCAF729D0FE2F27D0660F771F881F09
S1131730BB1F261737074807AB07B0E809F0BB0BF8
S1131740802DBF01FF2793585F4F2AF09E3F51051C
S113175068F08DC0D7C05F3FECF3983EDCF386950C
S113176077956795B795F7959F5FC9F7880F911D92
S11317709695879597F90895E1E0660F771F881F7E
S1131780BB1F621773078407BA0720F0621B730B31
S1131790840BBA0BEE1F88F7E095089598D088F073
S11317A09F5790F0B92F9927B751A0F0D1F0660F49
S11317B0771F881F991F1AF0BA95C9F712C0B13064
S11317C081F09FD0B1E008959CC0672F782F8827BF
S11317D0B85F39F0B93FCCF3869577956795B395A3
S11317E0D9F73EF490958095709561957F4F8F4F12
S11317F09F4F0895E89409C097FB3EF49095809517
S1131800709561957F4F8F4F9F4F9923A9F0F92FC2
S113181096E9BB279395F695879577956795B79540
S1131820F111F8CFFAF4BB0F11F460FF1BC06F5F26
S11318307F4F8F4F9F4F16C0882311F096E911C038
S1131840772321F09EE8872F762F05C0662371F059
S113185096E8862F70E060E02AF09A95660F771F6D
S1131860881FDAF7880F9695879597F9089597F961
S11318709F6780E870E060E008959FEF80EC089532
S113188000240A941616170618060906089500245B
S11318900A9412161306140605060895092E0394D5
S11318A0000C11F4882352F0BB0F40F4BF2B11F449
S11318B060FF04C06F5F7F4F8F4F9F4F089557FDA8
S11318C09058440F551F59F05F3F71F04795880FAA
S11318D097FB991F61F09F3F79F087950895121641
S11318E013061406551FF2CF4695F1DF08C01616ED
S11318F017061806991FF1CF86957105610508949E
S11319000895E894BB2766277727CB0197F90895B4
S1131910629FD001739FF001829FE00DF11D649FCF
S1131920E00DF11D929FF00D839FF00D749FF00D5B
S1131930659FF00D9927729FB00DE11DF91F639FFC
S1131940B00DE11DF91FBD01CF0111240895F894D4
S1051950FFCFC3
S11319520C0012001415161783037D0304000505F9
S10719620107010074
S9030000FC
