:100000000C942A000C94CB000C94FB000C942B0154
:100010000C943C030C9459020C9447000C94C405B6
:100020000C9447000C9447000C9404030C94AE010C
:100030000C9447000C9458040C941A040C94470038
:100040000C9447000C9447000C9447000C94470014
:100050000C94470011241FBECFE5D8E0DEBFCDBF12
:1000600010E0A0E6B0E0E2E8F1E102C005900D92F8
:10007000A437B107D9F720E0A4E7B0E001C01D9292
:10008000AB3EB207E1F70E9492000C94BF080C94BB
:100090000000CF93DF93CDB7DEB7CF5FD1090FB6A6
:1000A000F894DEBF0FBECDBFFE0131968FEFDF01AA
:1000B0001D928A95E9F780E00E945B0160E875E295
:1000C00080E090E00E94660378948E010F5F1F4FDE
:1000D00060E0C8010E947F01C8010E94D3038DE047
:1000E0000E94B40324E630E040E050E060E070E0BD
:1000F00080E090E00E949700F80101900020E9F76D
:100100003197CF01801B910B882311F3FE013196AB
:10011000815090E001968E0F9F1F1192E817F9070A
:10012000E1F7D6CF0E94490080E090E00895FF9269
:100130000F931F93CF93DF93F22E032F142FD52FFE
:10014000C62FB72FF82FE92FA0E00E945B07E9F038
:100150008FEC97E00197F1F700C000002F2D302FB2
:10016000412F5D2F6C2F7B2F8F2F9E2FAFEF0E9483
:100170004607F22E032F142FD52FC62FB72FF82F97
:10018000E92FA0E00E945B0719F7DF91CF911F9143
:100190000F91FF9008951F920F920FB60F921124A6
:1001A0002F933F934F935F936F937F938F939F937F
:1001B000AF93BF93EF93FF938AB780648ABF809118
:1001C000740090917500892B29F0E0917400F091F2
:1001D00075000995FF91EF91BF91AF919F918F911C
:1001E0007F916F915F914F913F912F910F900FBE33
:1001F0000F901F9018951F920F920FB60F92112417
:100200002F933F934F935F936F937F938F939F931E
:10021000AF93BF93EF93FF938AB780688ABF8091B3
:10022000760090917700892B29F0E0917600F0918B
:1002300077000995FF91EF91BF91AF919F918F91B9
:100240007F916F915F914F913F912F910F900FBED2
:100250000F901F9018951F920F920FB60F921124B6
:100260002F933F934F935F936F937F938F939F93BE
:10027000AF93BF93EF93FF938AB780628ABF809159
:10028000780090917900892B29F0E0917800F09125
:1002900079000995FF91EF91BF91AF919F918F9157
:1002A0007F916F915F914F913F912F910F900FBE72
:1002B0000F901F901895982F917090FDBF9A90FF06
:1002C000BF988F5F80FDBE9A80FFBE9890FDBD9A5B
:1002D00090FFBD9890FDBC9A90FFBC988DB18C7F2B
:1002E0008DB970986D986A986B9890FD6C9A90FF94
:1002F0006C986E9A0895779BFECF8FB108951F93E7
:10030000CF93DF93009749F0162FEC010E947B01F9
:1003100089938113FBCF80E001C081E0DF91CF9111
:100320001F91089581110CC0EEE9F0E01082118256
:1003300012821382148215821682178212BE0895C9
:10034000813059F4EEE9F0E01086118612861386AA
:10035000148615861686178614BC08951F920F9270
:100360000FB60F921124AF92BF92CF92DF92EF920D
:10037000FF920F931F932F933F934F935F936F932E
:100380007F938F939F93AF93BF93CF93DF93EF931D
:10039000FF9388B7816088BFCEE9D0E0288139819A
:1003A0004A815B816C817D818E819F81A1E00E9469
:1003B0004607288339834A835B836C837D838E83DE
:1003C0009F83E0917A00F0917B0009952881398123
:1003D0004A815B816C817D818E819F81E091660085
:1003E000F0E0EE0FFF1FEE0FFF1FEE0FFF1FE258B2
:1003F000FF4FA080B180C280D380E480F580068169
:1004000017810E945207D1F5188219821A821B8225
:100410001C821D821E821F82E091AE00F091AF000F
:10042000099580916600811113C081E08093660078
:10043000EEE7F0E0908521852285238524852585BA
:100440002685278528E1929F800D112482BF16C042
:1004500080916600813091F410926600EEE7F0E042
:100460009081818182818381848185818681878158
:1004700081E028E1929F800D112482BFFF91EF91CE
:10048000DF91CF91BF91AF919F918F917F916F91AC
:100490005F914F913F912F911F910F91FF90EF909E
:1004A000DF90CF90BF90AF900F900FBE0F901F9036
:1004B00018951F920F920FB60F921124AF92BF9210
:1004C000CF92DF92EF92FF920F931F932F933F9360
:1004D0004F935F936F937F938F939F93AF93BF934C
:1004E000CF93DF93EF93FF9388B7806488BFCEE903
:1004F000D0E0288539854A855B856C857D858E852C
:100500009F85A1E00E944607288739874A875B8735
:100510006C877D878E879F87E0917C00F0917D00BE
:100520000995288539854A855B856C857D858E850D
:100530009F85E0916700F0E0EE0FFF1FEE0FFF1FB9
:10054000EE0FFF1FE257FF4FA080B180C280D38023
:10055000E480F580068117810E945207D1F5188644
:1005600019861A861B861C861D861E861F86E091AC
:10057000B000F091B100099580916700811113C01E
:1005800081E080936700EEE7F0E0908D218D228D71
:10059000238D248D258D268D278D28E1929F800D1A
:1005A000112482BF16C080916700813091F41092AF
:1005B0006700EEE7F0E090898189828983898489E8
:1005C00085898689878981E028E1929F800D1124A1
:1005D00084BDFF91EF91DF91CF91BF91AF919F913A
:1005E0008F917F916F915F914F913F912F911F91CB
:1005F0000F91FF90EF90DF90CF90BF90AF900F9052
:100600000FBE0F901F9018951F920F920FB60F926A
:1006100011242F933F934F935F936F937F938F9307
:100620009F93AF93BF93EF93FF9388B7826088BF88
:100630008091B2009091B300892B41F0E091B2001B
:10064000F091B300099580E00E949201E0917A0058
:10065000F0917B000995FF91EF91BF91AF919F9130
:100660008F917F916F915F914F913F912F910F905B
:100670000FBE0F901F9018951F920F920FB60F92FA
:1006800011242F933F934F935F936F937F938F9397
:100690009F93AF93BF93EF93FF9388B7806888BF12
:1006A000E0917C00F0917D000995FF91EF91BF9161
:1006B000AF919F918F917F916F915F914F913F91FA
:1006C0002F910F900FBE0F901F901895CF92DF9231
:1006D000EF92FF92CF936B017C018DE690E00E9438
:1006E0008704C82F88E690E00E948704C82B91F504
:1006F000C114D104E104F10479F1D701C601880FD6
:10070000991FAA1FBB1F880F991FAA1FBB1F9C01FF
:10071000AD01220F331F441F551F220F331F441FEB
:10072000551F60E072E18AE790E00E942407BA0159
:10073000A9014150510961097109BB27A72F962FC3
:10074000852F80BD49B9549A539A579A80B58668C7
:1007500080BD03C0C3E001C0C5E08C2FCF91FF90E6
:10076000EF90DF90CF9008959091B400911119C04F
:1007700091E09093B4005D990BC040E050E060E0E0
:1007800071E05D9905C04150510961097109C9F7CE
:100790005D9B03C08CB980E001C088E01092B4007A
:1007A000089587E008950F931F93FC0101900020A6
:1007B000E9F731978F01081B190B0097A9F12091D8
:1007C000B400211133C020E030E041E04093B40098
:1007D0000115110521053105F9F0FC0180E090E0DB
:1007E000DC0113C05D9905C04150510961097109CF
:1007F000C9F75D9B13C041914CB90196A11DB11D74
:1008000080179107A207B30758F45D99F2CF40E033
:1008100050E060E071E0E6CF80E003C088E001C016
:1008200080E01092B40003C084E001C087E01F9113
:100830000F9108951F920F920FB60F9211242F93CC
:100840003F934F935F936F937F938F939F93AF9358
:10085000BF93EF93FF93CF93DF931F92CDB7DEB794
:100860005D9A8091B400823079F41982BE016F5F85
:100870007F4F88E690E00E94F604823019F4559884
:100880001092B40089818CB90F90DF91CF91FF91C4
:10089000EF91BF91AF919F918F917F916F915F91F8
:1008A0004F913F912F910F900FBE0F901F90189571
:1008B0001F920F920FB60F9211242F933F934F93D5
:1008C0005F936F937F938F939F93AF93BF93EF93B8
:1008D000FF935F9A8091B500811108C06CB18DE6DD
:1008E00090E00E949F04813009F45798FF91EF91A6
:1008F000BF91AF919F918F917F916F915F914F9138
:100900003F912F910F900FBE0F901F901895CF938E
:10091000DF93009781F0EC018C8161E070E0082E9C
:10092000000C990B0E947B07998388838FEF8A8341
:100930008B8380E001C083E0DF91CF9108950F9316
:100940001F93CF93DF93FC01462F328131110FC0EB
:100950002381C22F022E000CDD0B6481062E000CB9
:10096000770B61507109C617D70799F52CC0238101
:10097000022F022E000C110BC4810C2E000CDD0B7B
:100980002197832F032E000C990B0197BE010E9423
:10099000100708171907C9F03F3F19F41282138294
:1009A00007C00C171D0711F4138202C02F5F2383A9
:1009B00083810190F081E02DE80FF11D87FDFA950C
:1009C000408380E00EC081E00CC081E00AC081E07D
:1009D00008C08FEF9FEF0E941007C817D90731F7A3
:1009E000F6CFDF91CF911F910F910895FC01828185
:1009F0008F3F29F1A081B181A80FB11D87FDBA9564
:100A00008C91DB018C9322818381281305C08FEFA9
:100A10008283838380E008958481082E000C990BE3
:100A20000197422F022E000C550B4817590719F455
:100A3000128280E008952F5F228380E0089582E093
:100A40000895CF93DF939C01FB01DC011196CD91BA
:100A5000DC911297D383C2838C819D81958384839B
:100A60008C819D81DC0113967C936E9312977D831C
:100A70006C8331872087F90180818F5F8083DF91CC
:100A8000CF910895CF93DF93FC01A085B185C281FA
:100A9000D381848195819D838C83C481D58182811A
:100AA00093819B838A8311968D919C911297E8176D
:100AB000F90731F48481958112969C938E93119756
:100AC000118610868C9181508C93DF91CF9108957F
:100AD0000F920FB6F8940F921F9211242F923F920B
:100AE0004F925F926F927F928F929F92AF92BF923E
:100AF000CF92DF92EF92FF920F931F932F933F932A
:100B00004F935F936F937F938F939F93AF93BF9315
:100B1000CF93DF93EF93FF93A091E500B091E600B0
:100B20000DB60D920EB60D920E94E60581110E943F
:100B3000A306A091E500B091E600CD91CDBFDD9177
:100B4000DEBFFF91EF91DF91CF91BF91AF919F9168
:100B50008F917F916F915F914F913F912F911F9155
:100B60000F91FF90EF90DF90CF90BF90AF909F904C
:100B70008F907F906F905F904F903F902F901F903D
:100B80000F900FBE0F9008950E9468051895E09190
:100B9000BF00F091C0008081811107C08FEF9FEFEF
:100BA00090937300809372000895E091BF00F091DC
:100BB000C0000580F681E02D0680F781E02D82815E
:100BC000938190937300809372000895CF92DF9287
:100BD000EF92FF920F931F93CF93DF938091B60014
:100BE00081119BC08091BB009091BC0001969093B5
:100BF000BC008093BB00E090BB00F090BC00E1140F
:100C0000F104B9F48091BF009091C0002091BD0023
:100C10003091BE003093C0002093BF009093BE007F
:100C20008093BD008091B7008F5F8093B7000E94D2
:100C3000C7058091720090917300E816F90610F4D0
:100C4000D12C53C0D12CCC24C394E091BF00F0919F
:100C5000C0008081811107C08FEF9FEF90937300D8
:100C60008093720042C0E091BF00F091C000058007
:100C7000F681E02DC681D7818A819B81E816F9062D
:100C800028F490937300809372002FC08E010E5F42
:100C90001F4FC8010E9442058C899D89892B21F034
:100CA000CE010C960E9442058E899091BA00981749
:100CB00010F48093BA0090E09C01220F331F220FA2
:100CC000331F220F331F820F931FB8018F539F4F83
:100CD0000E942105E091E500F091E6009E89868959
:100CE000981708F4B2CFDC2CB0CFE091E500F0917A
:100CF000E600868990E0FC01EE0FFF1FEE0FFF1F5C
:100D0000EE0FFF1F8E0F9F1FFC01EF53FF4F8081DF
:100D1000823048F0DD24D39406C08091B9008F5F03
:100D20008093B900D12C8091B800882311F0DD2484
:100D3000D3948D2DDF91CF911F910F91FF90EF9064
:100D4000DF90CF9008958091B600882321F081E054
:100D50008093B80008951092B8008091BA0090E096
:100D6000FC01EE0FFF1FEE0FFF1FEE0FFF1F8E0F98
:100D70009F1FFC01EF53FF4F8081811117C08091AD
:100D8000BA0081508093BA008091BA0090E0FC01D3
:100D9000EE0FFF1FEE0FFF1FEE0FFF1F8E0F9F1FA7
:100DA000FC01EF53FF4F8081882349F38091BA0003
:100DB00090E09C01220F331F220F331F220F331F9D
:100DC000280F391FD901AF53BF4F1196ED91FC91F8
:100DD00012970280F381E02D1296FC93EE93119707
:100DE0002C533F4FE217F30729F422813381FD0191
:100DF00032832183FC01EE0FFF1FEE0FFF1FEE0F6A
:100E0000FF1F8E0F9F1FFC01EF53FF4F0180F281E8
:100E1000E02D868197819093E6008093E500089508
:100E200097FB072E16F4009407D077FD09D00E9497
:100E3000670707FC05D03EF4909581959F4F089574
:100E4000709561957F4F0895A1E21A2EAA1BBB1BD6
:100E5000FD010DC0AA1FBB1FEE1FFF1FA217B30786
:100E6000E407F50720F0A21BB30BE40BF50B661F9C
:100E7000771F881F991F1A9469F760957095809560
:100E800090959B01AC01BD01CF0108950024A7FD01
:100E900000942A0F301D401D501D601D701D801DC7
:100EA000901D08952A153B054C055D056E057F05CF
:100EB0008007910708950024A7FD00942A173005A4
:100EC0004005500560057005800590050895AA1B32
:100ED000BB1B51E107C0AA1FBB1FA617B70710F025
:100EE000A61BB70B881F991F5A95A9F78095909557
:100EF000BC01CD0108950F931F93CF93DF93869F7D
:100F00008001879F100D969F100D1124C8010E942B
:100F10009707EC01009729F0A80160E070E00E94BB
:100F2000B808CE01DF91CF911F910F9108950F93D3
:100F30001F93CF93DF938230910510F482E090E00D
:100F4000E091E900F091EA0020E030E0A0E0B0E0BC
:100F5000309719F140815181028113814817590757
:100F6000C8F08417950769F4109731F012960C9326
:100F7000129713961C9327C00093E9001093EA0080
:100F800022C02115310519F04217530718F49A01B0
:100F9000BD01EF01DF01F801DBCF21153105F9F0CB
:100FA000281B390B2430310580F48A819B8161151F
:100FB000710521F0FB019383828304C09093EA00C2
:100FC0008093E900FE01329644C0FE01E20FF31F58
:100FD0008193919322503109398328833AC020911B
:100FE000E7003091E800232B41F42091620030911A
:100FF00063003093E8002093E70020916000309177
:1010000061002115310541F42DB73EB740916400D0
:1010100050916500241B350BE091E700F091E8004A
:10102000E217F307A0F42E1B3F0B2817390778F0BF
:10103000AC014E5F5F4F2417350748F04E0F5F1F1E
:101040005093E8004093E7008193919302C0E0E061
:10105000F0E0CF01DF91CF911F910F910895CF93D1
:10106000DF93009709F481C0FC013297138212824A
:10107000A091E900B091EA00109781F420813181BC
:10108000820F931F2091E7003091E800281739075D
:1010900051F5F093E800E093E70067C0ED0120E030
:1010A00030E0CE17DF0740F44A815B819E01411595
:1010B0005105F1F0EA01F5CFD383C283408151811C
:1010C000840F951FC817D90759F488819981840F17
:1010D000951F0296918380838A819B81938382836B
:1010E0002115310529F4F093EA00E093E9003DC0B1
:1010F000E901FB83EA8349915991C40FD51FEC178D
:10110000FD0761F480819181840F951F0296E901AA
:1011100099838883828193819B838A83E0E0F0E0D6
:1011200012968D919C911397009719F0FD01DC01A7
:10113000F7CF8D919C9111979D012E5F3F4F820FAC
:10114000931F2091E7003091E8002817390769F4D0
:10115000309729F41092EA001092E90002C013823D
:101160001282B093E800A093E700DF91CF91089539
:10117000DC0101C06D9341505040E0F70895F894B0
:02118000FFCF9F
:101182000000EB0020000100000000000A00000047
:04119200000AFFFF51
:00000001FF
