:100000000C942A000C944F000C947F000C94AF00C9
:100010000C9489020C94A6010C9447000C943A04A9
:100020000C9447000C9447000C9451020C94FB0074
:100030000C9447000C94F0020C94B3020C9447000B
:100040000C9447000C9447000C9447000C94470014
:100050000C94470011241FBECFE5D8E0DEBFCDBF12
:1000600010E0A0E6B0E0EAE8FBE002C005900D92E7
:10007000AE36B107D9F720E0AEE6B0E001C01D9280
:10008000A03EB207E1F70E944A000C94C3050C940D
:10009000000008950E94490080E090E008951F92BA
:1000A0000F920FB60F9211242F933F934F935F93AC
:1000B0006F937F938F939F93AF93BF93EF93FF9330
:1000C0008AB780648ABF80916E0090916F00892BFF
:1000D00029F0E0916E00F0916F000995FF91EF918A
:1000E000BF91AF919F918F917F916F915F914F9150
:1000F0003F912F910F900FBE0F901F9018951F9258
:100100000F920FB60F9211242F933F934F935F934B
:100110006F937F938F939F93AF93BF93EF93FF93CF
:100120008AB780688ABF8091700090917100892B96
:1001300029F0E0917000F09171000995FF91EF9125
:10014000BF91AF919F918F917F916F915F914F91EF
:100150003F912F910F900FBE0F901F9018951F92F7
:100160000F920FB60F9211242F933F934F935F93EB
:100170006F937F938F939F93AF93BF93EF93FF936F
:100180008AB780628ABF8091720090917300892B38
:1001900029F0E0917200F09173000995FF91EF91C1
:1001A000BF91AF919F918F917F916F915F914F918F
:1001B0003F912F910F900FBE0F901F9018958111B6
:1001C0000CC0E8E9F0E010821182128213821482DE
:1001D00015821682178212BE0895813059F4E8E91B
:1001E000F0E0108611861286138614861586168610
:1001F000178614BC08951F920F920FB60F92112408
:10020000AF92BF92CF92DF92EF92FF920F931F9324
:100210002F933F934F935F936F937F938F939F930E
:10022000AF93BF93CF93DF93EF93FF9388B7816032
:1002300088BFC8E9D0E0288139814A815B816C811F
:100240007D818E819F81A1E00E949A052883398358
:100250004A835B836C837D838E839F83E0917400EC
:10026000F09175000995288139814A815B816C8103
:100270007D818E819F81E0916000F0E0EE0FFF1F95
:10028000EE0FFF1FEE0FFF1FE858FF4FA080B18059
:10029000C280D380E480F580068117810E94A60584
:1002A000D1F5188219821A821B821C821D821E823D
:1002B0001F82E091A800F091A9000995809160004B
:1002C000811113C081E080936000E8E7F0E0908541
:1002D000218522852385248525852685278528E176
:1002E000929F800D112482BF16C0809160008130E2
:1002F00091F410926000E8E7F0E0908181818281C2
:100300008381848185818681878181E028E1929F34
:10031000800D112482BFFF91EF91DF91CF91BF91AA
:10032000AF919F918F917F916F915F914F913F918D
:100330002F911F910F91FF90EF90DF90CF90BF9082
:10034000AF900F900FBE0F901F9018951F920F92B5
:100350000FB60F921124AF92BF92CF92DF92EF921D
:10036000FF920F931F932F933F934F935F936F933E
:100370007F938F939F93AF93BF93CF93DF93EF932D
:10038000FF9388B7806488BFC8E9D0E028853985A5
:100390004A855B856C857D858E859F85A1E00E9461
:1003A0009A05288739874A875B876C877D878E8780
:1003B0009F87E0917600F09177000995288539852F
:1003C0004A855B856C857D858E859F85E091610082
:1003D000F0E0EE0FFF1FEE0FFF1FEE0FFF1FE857BD
:1003E000FF4FA080B180C280D380E480F580068179
:1003F00017810E94A605D1F5188619861A861B86D4
:100400001C861D861E861F86E091AA00F091AB0017
:10041000099580916100811113C081E08093610092
:10042000E8E7F0E0908D218D228D238D248D258DA0
:10043000268D278D28E1929F800D112482BF16C042
:1004400080916100813091F410926100E8E7F0E062
:100450009089818982898389848985898689878928
:1004600081E028E1929F800D112484BDFF91EF91DE
:10047000DF91CF91BF91AF919F918F917F916F91BC
:100480005F914F913F912F911F910F91FF90EF90AE
:10049000DF90CF90BF90AF900F900FBE0F901F9046
:1004A00018951F920F920FB60F9211242F933F931E
:1004B0004F935F936F937F938F939F93AF93BF936C
:1004C000EF93FF9388B7826088BF8091AC009091D2
:1004D000AD00892B41F0E091AC00F091AD000995A1
:1004E00080E00E94DF00E0917400F09175000995B2
:1004F000FF91EF91BF91AF919F918F917F916F91FC
:100500005F914F913F912F910F900FBE0F901F90D1
:1005100018951F920F920FB60F9211242F933F93AD
:100520004F935F936F937F938F939F93AF93BF93FB
:10053000EF93FF9388B7806888BFE0917600F091D1
:1005400077000995FF91EF91BF91AF919F918F91A6
:100550007F916F915F914F913F912F910F900FBEBF
:100560000F901F9018951F920F920FB60F921124A3
:100570002F933F934F935F936F937F938F939F93AB
:10058000AF93BF93EF93FF93CF93DF931F92CDB7BA
:10059000DEB78091AE00823079F41982BE016F5FC0
:1005A0007F4F82E690E00E946E03823019F45598E6
:1005B0001092AE0089818CB90F90DF91CF91FF919D
:1005C000EF91BF91AF919F918F917F916F915F91CB
:1005D0004F913F912F910F900FBE0F901F90189544
:1005E0001F920F920FB60F9211242F933F934F93A8
:1005F0005F936F937F938F939F93AF93BF93EF938B
:10060000FF935F9A6CB187E690E00E941B038130F4
:1006100009F45798FF91EF91BF91AF919F918F91FE
:100620007F916F915F914F913F912F910F900FBEEE
:100630000F901F9018950F931F93CF93DF93FC019A
:10064000462F328131110DC02381C22F022E000CA2
:10065000DD0B648170E061507109C617D70789F519
:100660002AC02381022F022E000C110BC481D0E07E
:100670002197832F032E000C990B0197BE010E9436
:10068000860508171907C9F03F3F19F41282138233
:1006900007C00C171D0711F4138202C02F5F2383BC
:1006A00083810190F081E02DE80FF11D87FDFA951F
:1006B000408380E00EC081E00CC081E00AC081E090
:1006C00008C08FEF9FEF0E948605C817D90731F742
:1006D000F6CFDF91CF911F910F910895FC01828198
:1006E0008F3F19F1A081B181A80FB11D87FDBA9587
:1006F0008C91DB018C9322818381281305C08FEFBD
:100700008283838380E00895848190E00197422F63
:10071000022E000C550B4817590719F4128280E07D
:1007200008952F5F228380E0089582E00895CF939B
:10073000DF939C01FB01DC011196CD91DC911297B6
:10074000D383C2838C819D81958384838C819D8199
:10075000DC0113967C936E9312977D836C833187B3
:100760002087F90180818F5F8083DF91CF91089589
:10077000CF93DF93FC01A085B185C281D3818481B1
:1007800095819D838C83C481D581828193819B8354
:100790008A8311968D919C911297E817F90731F48D
:1007A0008481958112969C938E9311971186108661
:1007B0008C9181508C93DF91CF9108950F920FB659
:1007C000F8940F921F9211242F923F924F925F92B2
:1007D0006F927F928F929F92AF92BF92CF92DF9251
:1007E000EF92FF920F931F932F933F934F935F933B
:1007F0006F937F938F939F93AF93BF93CF93DF9329
:10080000EF93FF93A091DE00B091DF000DB60D9243
:100810000EB60D920E945C0481110E941905A091F0
:10082000DE00B091DF00CD91CDBFDD91DEBFFF9145
:10083000EF91DF91CF91BF91AF919F918F917F9178
:100840006F915F914F913F912F911F910F91FF9069
:10085000EF90DF90CF90BF90AF909F908F907F9060
:100860006F905F904F903F902F901F900F900FBE12
:100870000F9008950E94DE031895E091B800F09162
:10088000B9008081811107C08FEF9FEF90936D00B9
:1008900080936C000895E091B800F091B900058054
:1008A000F681E02D0680F781E02D8281938190937F
:1008B0006D0080936C000895CF92DF92EF92FF92CB
:1008C0000F931F93CF93DF938091AF0081119BC053
:1008D0008091B4009091B50001969093B5008093FB
:1008E000B400E090B400F090B500E114F104B9F464
:1008F0008091B8009091B9002091B6003091B70076
:100900003093B9002093B8009093B7008093B6005D
:100910008091B0008F5F8093B0000E943D04809171
:100920006C0090916D00E816F90610F4D12C53C0BC
:10093000D12CCC24C394E091B800F091B90080810F
:10094000811107C08FEF9FEF90936D0080936C0033
:1009500042C0E091B800F091B9000580F681E02D29
:10096000C681D7818A819B81E816F90628F4909385
:100970006D0080936C002FC08E010E5F1F4FC80169
:100980000E94B8038C899D89892B21F0CE010C9699
:100990000E94B8038E899091B300981710F4809349
:1009A000B30090E09C01220F331F220F331F220F50
:1009B000331F820F931FB80186549F4F0E949703E5
:1009C000E091DE00F091DF009E898689981708F497
:1009D000B2CFDC2CB0CFE091DE00F091DF00868951
:1009E00090E0FC01EE0FFF1FEE0FFF1FEE0FFF1F49
:1009F0008E0F9F1FFC01E654FF4F8081823048F02C
:100A0000DD24D39406C08091B2008F5F8093B20042
:100A1000D12C8091B100882311F0DD24D3948D2D49
:100A2000DF91CF911F910F91FF90EF90DF90CF90CA
:100A300008958091AF00882321F081E08093B10078
:100A400008951092B1008091B30090E0FC01EE0F88
:100A5000FF1FEE0FFF1FEE0FFF1F8E0F9F1FFC01EA
:100A6000E654FF4F8081811117C08091B3008150FF
:100A70008093B3008091B30090E0FC01EE0FFF1F64
:100A8000EE0FFF1FEE0FFF1F8E0F9F1FFC01E6549E
:100A9000FF4F8081882349F38091B30090E09C014F
:100AA000220F331F220F331F220F331F280F391F2E
:100AB000D901A654BF4F1196ED91FC911297028077
:100AC000F381E02D1296FC93EE93119723543F4F40
:100AD000E217F30729F422813381FD013283218358
:100AE000FC01EE0FFF1FEE0FFF1FEE0FFF1F8E0F1B
:100AF0009F1FFC01E654FF4F0180F281E02D8681AB
:100B000097819093DF008093DE00089597FB072E76
:100B100016F4009407D077FD09D00E94AF0507FCBA
:100B200005D03EF4909581959F4F089570956195FD
:100B30007F4F08950024A7FD00942A0F301D401D0B
:100B4000501D601D701D801D901D08952A153B05C8
:100B50004C055D056E057F05800791070895AA1B6A
:100B6000BB1B51E107C0AA1FBB1FA617B70710F098
:100B7000A61BB70B881F991F5A95A9F780959095CA
:0A0B8000BC01CD010895F894FFCFE9
:0E0B8A000100000000000A000000000AFFFF4A
:00000001FF
