:100000000C942A000C94B0000C94E0000C941001A5
:100010000C9442030C945F020C9447000C94FE0471
:100020000C9447000C9447000C940A030C94B40100
:100030000C9447000C94AA030C946C030C94470096
:100040000C9447000C9447000C9447000C94470014
:100050000C94470011241FBECFE5D8E0DEBFCDBF12
:1000600010E0A0E6B0E0EEE6FDE002C005900D92E3
:10007000AE36B107D9F720E0AEE6B0E001C01D9280
:10008000A13EB207E1F70E9477000C94B5060C94EC
:1000900000008FEF8ABB60EA76E881E090E00E9482
:1000A000440124E630E040E050E060E070E080E0B1
:1000B00090E00E947C00C0E00E94610163E081E06A
:1000C0000E947A0165E08C2F0E947A01D1E0DC0F5A
:1000D000CBBB0E94770128EE33E040E050E060E0C7
:1000E00070E080E090E00E947C00CD2FE5CF0E9480
:1000F000490080E090E00895FF920F931F93CF9303
:10010000DF93F22E032F142FD52FC62FB72FF82FE2
:10011000E92FA0E00E949506E9F08FEC97E00197A7
:10012000F1F700C000002F2D302F412F5D2F6C2FD5
:100130007B2F8F2F9E2FAFEF0E948006F22E032F72
:10014000142FD52FC62FB72FF82FE92FA0E00E942C
:10015000950619F7DF91CF911F910F91FF900895A8
:100160001F920F920FB60F9211242F933F934F932C
:100170005F936F937F938F939F93AF93BF93EF930F
:10018000FF938AB780648ABF80916E0090916F0060
:10019000892B29F0E0916E00F0916F000995FF9195
:1001A000EF91BF91AF919F918F917F916F915F91EF
:1001B0004F913F912F910F900FBE0F901F90189568
:1001C0001F920F920FB60F9211242F933F934F93CC
:1001D0005F936F937F938F939F93AF93BF93EF93AF
:1001E000FF938AB780688ABF8091700090917100F8
:1001F000892B29F0E0917000F09171000995FF9131
:10020000EF91BF91AF919F918F917F916F915F918E
:100210004F913F912F910F900FBE0F901F90189507
:100220001F920F920FB60F9211242F933F934F936B
:100230005F936F937F938F939F93AF93BF93EF934E
:10024000FF938AB780628ABF809172009091730099
:10025000892B29F0E0917200F09173000995FF91CC
:10026000EF91BF91AF919F918F917F916F915F912E
:100270004F913F912F910F900FBE0F901F901895A7
:1002800006B607FEFDCF08959B01AC0181B18C7FBE
:1002900081B982B18078816082B960E072E18AE7D9
:1002A00090E00E945E06DA01C9014097A109B109F8
:1002B000B695A7959795879580B986B7846086BFD0
:1002C000089584EA86BF0E94400181B18695869593
:1002D0008695813041F081B18695869586958730E7
:1002E00021F084E0089580E0089585E0089584E990
:1002F00086BF0895CF93C62F83B984E886BF0E9436
:10030000400181B186958695869590E06C2F70E0CE
:100310008617970741F081B1869586958695873037
:1003200021F084E003C080E001C085E0CF91089512
:1003300081110CC0E8E9F0E0108211821282138270
:10034000148215821682178212BE0895813059F4E4
:10035000E8E9F0E010861186128613861486158669
:100360001686178614BC08951F920F920FB60F922F
:100370001124AF92BF92CF92DF92EF92FF920F9330
:100380001F932F933F934F935F936F937F938F931D
:100390009F93AF93BF93CF93DF93EF93FF9388B770
:1003A000816088BFC8E9D0E0288139814A815B81BA
:1003B0006C817D818E819F81A1E00E9480062883CF
:1003C00039834A835B836C837D838E839F83E09133
:1003D0007400F09175000995288139814A815B810B
:1003E0006C817D818E819F81E0916000F0E0EE0F55
:1003F000FF1FEE0FFF1FEE0FFF1FE858FF4FA080FB
:10040000B180C280D380E480F580068117810E948C
:100410008C06D1F5188219821A821B821C821D82D9
:100420001E821F82E091A800F091A9000995809199
:100430006000811113C081E080936000E8E7F0E084
:1004400090852185228523852485258526852785F8
:1004500028E1929F800D112482BF16C08091600018
:10046000813091F410926000E8E7F0E090818181A2
:1004700082818381848185818681878181E028E1F1
:10048000929F800D112482BFFF91EF91DF91CF9158
:10049000BF91AF919F918F917F916F915F914F919C
:1004A0003F912F911F910F91FF90EF90DF90CF9090
:1004B000BF90AF900F900FBE0F901F9018951F9296
:1004C0000F920FB60F921124AF92BF92CF92DF928C
:1004D000EF92FF920F931F932F933F934F935F934E
:1004E0006F937F938F939F93AF93BF93CF93DF933C
:1004F000EF93FF9388B7806488BFC8E9D0E0288570
:1005000039854A855B856C857D858E859F85A1E0D3
:100510000E948006288739874A875B876C877D879A
:100520008E879F87E0917600F09177000995288566
:1005300039854A855B856C857D858E859F85E091B3
:100540006100F0E0EE0FFF1FEE0FFF1FEE0FFF1F29
:10055000E857FF4FA080B180C280D380E480F5804F
:10056000068117810E948C06D1F5188619861A8695
:100570001B861C861D861E861F86E091AA00F091B0
:10058000AB00099580916100811113C081E08093D7
:100590006100E8E7F0E0908D218D228D238D248D80
:1005A000258D268D278D28E1929F800D112482BFF5
:1005B00016C080916100813091F410926100E8E7EB
:1005C000F0E09089818982898389848985898689F7
:1005D000878981E028E1929F800D112484BDFF91DD
:1005E000EF91DF91CF91BF91AF919F918F917F91CB
:1005F0006F915F914F913F912F911F910F91FF90BC
:10060000EF90DF90CF90BF90AF900F900FBE0F9004
:100610001F9018951F920F920FB60F9211242F93CF
:100620003F934F935F936F937F938F939F93AF937A
:10063000BF93EF93FF9388B7826088BF8091AC002F
:100640009091AD00892B41F0E091AC00F091AD00AC
:10065000099580E00E949801E0917400F091750086
:100660000995FF91EF91BF91AF919F918F917F91EC
:100670006F915F914F913F912F910F900FBE0F900F
:100680001F9018951F920F920FB60F9211242F935F
:100690003F934F935F936F937F938F939F93AF930A
:1006A000BF93EF93FF9388B7806888BFE09176008F
:1006B000F09177000995FF91EF91BF91AF919F91D4
:1006C0008F917F916F915F914F913F912F910F90FB
:1006D0000FBE0F901F9018951F920F920FB60F929A
:1006E00011242F933F934F935F936F937F938F9337
:1006F0009F93AF93BF93EF93FF93CF93DF931F929B
:10070000CDB7DEB75D9A8091AE00823079F4198260
:10071000BE016F5F7F4F82E690E00E94300482301E
:1007200019F455981092AE0089818CB90F90DF9121
:10073000CF91FF91EF91BF91AF919F918F917F9159
:100740006F915F914F913F912F910F900FBE0F903E
:100750001F9018951F920F920FB60F9211242F938E
:100760003F934F935F936F937F938F939F93AF9339
:10077000BF93EF93FF935F9A8091AF00811108C000
:100780006CB187E690E00E94D903813009F4579854
:10079000FF91EF91BF91AF919F918F917F916F9159
:1007A0005F914F913F912F910F900FBE0F901F902F
:1007B00018950F931F93CF93DF93FC01462F32813F
:1007C00031110FC02381C22F022E000CDD0B64817A
:1007D000062E000C770B61507109C617D70799F5E3
:1007E0002CC02381022F022E000C110BC4810C2E71
:1007F000000CDD0B2197832F032E000C990B019722
:10080000BE010E944A0608171907C9F03F3F19F4B4
:100810001282138207C00C171D0711F4138202C045
:100820002F5F238383810190F081E02DE80FF11D7C
:1008300087FDFA95408380E00EC081E00CC081E026
:100840000AC081E008C08FEF9FEF0E944A06C817D8
:10085000D90731F7F6CFDF91CF911F910F9108950E
:10086000FC0182818F3F29F1A081B181A80FB11DC8
:1008700087FDBA958C91DB018C93228183812813AB
:1008800005C08FEF8283838380E008958481082EE2
:10089000000C990B0197422F022E000C550B4817A4
:1008A000590719F4128280E008952F5F228380E0B7
:1008B000089582E00895CF93DF939C01FB01DC0152
:1008C0001196CD91DC911297D383C2838C819D8147
:1008D000958384838C819D81DC0113967C936E9338
:1008E00012977D836C8331872087F90180818F5F28
:1008F0008083DF91CF910895CF93DF93FC01A08592
:10090000B185C281D381848195819D838C83C4818B
:10091000D581828193819B838A8311968D919C914D
:100920001297E817F90731F48481958112969C9308
:100930008E931197118610868C9181508C93DF9144
:10094000CF9108950F920FB6F8940F921F92112431
:100950002F923F924F925F926F927F928F929F92CF
:10096000AF92BF92CF92DF92EF92FF920F931F93BD
:100970002F933F934F935F936F937F938F939F93A7
:10098000AF93BF93CF93DF93EF93FF93A091DF00DB
:10099000B091E0000DB60D920EB60D920E942005AA
:1009A00081110E94DD05A091DF00B091E000CD91A2
:1009B000CDBFDD91DEBFFF91EF91DF91CF91BF9170
:1009C000AF919F918F917F916F915F914F913F91E7
:1009D0002F911F910F91FF90EF90DF90CF90BF90DC
:1009E000AF909F908F907F906F905F904F903F90CF
:1009F0002F901F900F900FBE0F9008950E94A20499
:100A00001895E091B900F091BA008081811107C07A
:100A10008FEF9FEF90936D0080936C000895E091AD
:100A2000B900F091BA000580F681E02D0680F781CB
:100A3000E02D8281938190936D0080936C000895E6
:100A4000CF92DF92EF92FF920F931F93CF93DF939A
:100A50008091B00081119BC08091B5009091B6004B
:100A600001969093B6008093B500E090B500F090A9
:100A7000B600E114F104B9F48091B9009091BA0084
:100A80002091B7003091B8003093BA002093B9009C
:100A90009093B8008093B7008091B1008F5F8093EE
:100AA000B1000E94010580916C0090916D00E816E4
:100AB000F90610F4D12C53C0D12CCC24C394E0916E
:100AC000B900F091BA008081811107C08FEF9FEFCC
:100AD00090936D0080936C0042C0E091B900F0915A
:100AE000BA000580F681E02DC681D7818A819B817D
:100AF000E816F90628F490936D0080936C002FC0DF
:100B00008E010E5F1F4FC8010E947C048C899D8955
:100B1000892B21F0CE010C960E947C048E89909145
:100B2000B400981710F48093B40090E09C01220F59
:100B3000331F220F331F220F331F820F931FB80161
:100B400085549F4F0E945B04E091DF00F091E0002C
:100B50009E898689981708F4B2CFDC2CB0CFE0913B
:100B6000DF00F091E000868990E0FC01EE0FFF1FAE
:100B7000EE0FFF1FEE0FFF1F8E0F9F1FFC01E554AE
:100B8000FF4F8081823048F0DD24D39406C08091ED
:100B9000B3008F5F8093B300D12C8091B200882383
:100BA00011F0DD24D3948D2DDF91CF911F910F9102
:100BB000FF90EF90DF90CF9008958091B000882350
:100BC00021F081E08093B20008951092B2008091EC
:100BD000B40090E0FC01EE0FFF1FEE0FFF1FEE0FC1
:100BE000FF1F8E0F9F1FFC01E554FF4F8081811175
:100BF00017C08091B40081508093B4008091B400FC
:100C000090E0FC01EE0FFF1FEE0FFF1FEE0FFF1F26
:100C10008E0F9F1FFC01E554FF4F8081882349F30D
:100C20008091B40090E09C01220F331F220F331FEC
:100C3000220F331F280F391FD901A554BF4F11961A
:100C4000ED91FC9112970280F381E02D1296FC93B6
:100C5000EE93119722543F4FE217F30729F42281B4
:100C60003381FD0132832183FC01EE0FFF1FEE0F64
:100C7000FF1FEE0FFF1F8E0F9F1FFC01E554FF4F5C
:100C80000180F281E02D868197819093E00080932E
:100C9000DF00089597FB072E16F4009407D077FD28
:100CA00009D00E94A10607FC05D03EF490958195DD
:100CB0009F4F0895709561957F4F0895A1E21A2E78
:100CC000AA1BBB1BFD010DC0AA1FBB1FEE1FFF1FF0
:100CD000A217B307E407F50720F0A21BB30BE40B40
:100CE000F50B661F771F881F991F1A9469F7609587
:100CF0007095809590959B01AC01BD01CF01089541
:100D00000024A7FD00942A0F301D401D501D601DBA
:100D1000701D801D901D08952A153B054C055D052D
:100D20006E057F058007910708950024A7FD0094B4
:100D30002A173005400550056005700580059005AF
:100D40000895AA1BBB1B51E107C0AA1FBB1FA61712
:100D5000B70710F0A61BB70B881F991F5A95A9F764
:0E0D600080959095BC01CD010895F894FFCFC9
:0E0D6E000100000000000A000000000AFFFF64
:00000001FF
