S01300004361725F50726F6A6563742E73726563C5
S11300000C942A000C9447000C9447000C9447006D
S11300100C94F5060C94A1060C9447000C9447002C
S11300200C9447000C9447000C94CB060C94770670
S11300300C9447000C9447000C9447000C94470020
S11300400C9447000C9447000C9447000C94470010
S11300500C94470011241FBECFE5D8E0DEBFCDBF0E
S113006010E0A0E6B0E0E2E4FEE002C005900D92EC
S1130070A438B107D9F710E0A4E8B0E001C01D929C
S1130080AC38B107E1F70E940E020C941F070C94E0
S113009000000E94F6010E941C0280E00E94A2025D
S11300A081E00E94A202789408950F931F93CF9346
S11300B0DF930F92CDB7DEB7198283E0BE016F5F85
S11300C07F4F0E94410289818130C1F583E0BE01E6
S11300D06F5F7F4F0E94410289818130B9F3809123
S11300E060008230F9F0833028F4882369F081308D
S11300F029F511C08330E9F08A3001F584E00E94CB
S1130100FD01109260001AC085E00E94FD0181E0AB
S11301108093600013C086E00E94FD0182E080931A
S113012060000CC087E00E94FD0183E080936000C2
S113013005C084E00E94FD01109260001982809144
S11301406100873009F452C0883040F4853061F191
S11301508630D8F5843009F0D6C015C0893009F44A
S113016067C0893008F453C08A3009F472C08B30F8
S113017009F0C9C080916000882309F031C18AE088
S113018080936100D5C081E0BE016F5F7F4F0E9404
S113019041028981813021F484E08093610004C1AB
S11301A08AE080936100C4C082E0BE016F5F7F4F2C
S11301B00E9441028981813021F485E080936100AD
S11301C0FEC08AE080936100B3C080E0BE016F5F2F
S11301D07F4F0E9441028981813021F486E080931F
S11301E06100F6C08AE080936100A2C081E0BE0194
S11301F06F5F7F4F0E9441028981813021F487E043
S1130200809361009CC08AE08093610091C082E089
S1130210BE016F5F7F4F0E9441028981813021F4CA
S113022088E080936100A2C08AE08093610080C06E
S113023080E0BE016F5F7F4F0E944102898181305F
S113024021F489E080936100A0C08AE0809361007A
S11302506FC080916000833059F581E0BE016F5F0B
S11302607F4F0E9441028981813021F484E0809390
S113027061009AC082E0BE016F5F7F4F0E9441021D
S11302808981813021F485E08093610098C080E009
S1130290BE016F5F7F4F0E9441028981813021F44A
S11302A086E08093610094C08AE08093610040C03E
S11302B081E0BE016F5F7F4F0E94410289818130DE
S11302C021F487E0809361003AC082E0BE016F5F51
S11302D07F4F0E9441028981813021F488E080931C
S11302E0610044C080E0BE016F5F7F4F0E94410205
S11302F08981813021F489E08093610046C08AE0DD
S11303008093610015C08730D1F0883050F4853077
S113031009F455C0863008F05BC0843009F060C031
S113032043C0893091F1893008F18A3009F058C00E
S113033080E00E942E0381E00E942E0351C0809130
S1130340600002E610E0F801E80FF11D80E060E0D3
S113035040810E94D80280916000F801E80FF11DED
S113036081E060E040810E94D8023AC081E00E94AE
S11303702E0380916000E2E6F0E0E80FF11D80E0DA
S113038060E040810E94D8022BC080E00E942E03CE
S113039080916000E2E6F0E0E80FF11D81E060E0AA
S11303A040810E94D8021CC080E061E04DE40E94BC
S11303B0D80281E061E04DE40E94D80211C080E0DF
S11303C00E942E0381E061E04DE40E94D80208C03F
S11303D081E00E942E0380E061E04DE40E94D80297
S11303E00F90DF91CF911F910F910895A39AAB9A2B
S11303F0BC9ABD9ABE9ABF9A0895C498C598C698E7
S1130400C79848B321E030E0B90102C0660F771FF6
S11304108A95E2F7CB01842B88BB08950E9449009A
S11304200E9455008FEF90E7A2E081509040A040D9
S1130430E1F700C00000F4CF0F931F93CF93DF9335
S1130440C0E0D0E005E610E0FE01EE0FFF1FE00F74
S1130450F11F8081618140E00E9480032196C430B5
S1130460D10591F782E063E041E00E94800382E0DD
S113047063E041E00E943004DF91CF911F910F911E
S11304800895AB01853078F46115710571F0E82F9A
S1130490F0E0EE0FFF1FEB59FF4F808161810E9456
S11304A0ED0480E0089581E0089582E00895EF92DC
S11304B0FF921F93CF93DF93162F8330E0F5E82E3E
S11304C0FF24F701EC57FF4F8081882359F5F7018A
S11304D0E359FF4F8081882391F4E701CC0FDD1F9E
S11304E0CC0FDD1FCF58DF4F8A816B8140E00E9423
S11304F030048881698141E00E94300413C0813056
S113050089F4E701CC0FDD1FCC0FDD1FCF58DF4F7F
S11305108881698140E00E9430048A816B8141E0D6
S11305200E943004F701E159FF4F8081612F0E943E
S11305303F0680E001C081E0DF91CF911F91FF90E1
S1130540EF9008950F931F93CF93DF93082F0E948A
S11305500C0610E0E801CC0FDD1FCC0FDD1FCF58D7
S1130560DF4F8881698141E00E948003888169812D
S113057040E00E9430048A816B8141E00E94800344
S11305808A816B8140E00E943004F801EC57FF4FF0
S11305901082F801EA57FF4F8FEF8083F801E35987
S11305A0FF4F82E08083DF91CF911F910F910895D7
S11305B0CF93DF93833008F049C0C82FD0E0FE0109
S11305C0EC57FF4F9081992389F4FE01EA57FF4FBE
S11305D04083FE01E359FF4F6083642F0E9457025A
S11305E0CC57DF4F81E0888380E035C0913081F5BE
S11305F0FE01E359FF4F9081961789F0FE01EA57F7
S1130600FF4F4083FE01E359FF4F6083642F0E9434
S11306105702CC57DF4F81E0888380E01CC0FE0185
S1130620EA57FF4F20812417A9F0FE01EA57FF4F34
S11306304083FE01E359FF4F9083642F0E945702C9
S1130640CC57DF4F81E0888380E005C081E003C0A0
S113065080E001C080E0DF91CF910895EF92FF9296
S11306601F93CF93DF93182F833060F5E82EFF2478
S1130670F701E159FF4F80810E942A06E701CC0F60
S1130680DD1FCC0FDD1FCF58DF4F8881698140E02B
S11306900E9430048A816B8140E00E943004F7019B
S11306A0EC57FF4F1082F701EA57FF4F8FEF80831B
S11306B0F701E359FF4F82E08083812F0E942A06CD
S11306C080E001C081E0DF91CF911F91FF90EF9016
S11306D00895813051F0813028F0823049F0833020
S11306E069F409C06ABB80E0089567BB80E008959F
S11306F064BB80E0089561BB80E0089581E00895C3
S1130700683008F08EC0413009F042C08130B1F049
S1130710813030F0823001F1833009F084C02AC086
S11307202AB381E090E0AC0102C0440F551F6A95E2
S1130730E2F7BA01622B6ABB80E0089527B381E037
S113074090E0AC0102C0440F551F6A95E2F7BA016C
S1130750622B67BB80E0089524B381E090E0AC0194
S113076002C0440F551F6A95E2F7BA01622B64BBBD
S113077080E0089521B381E090E0AC0102C0440F11
S1130780551F6A95E2F7BA01622B61BB80E00895B8
S1130790442309F04AC08130B9F0813030F082300E
S11307A011F1833009F043C02DC02AB381E090E0F9
S11307B0AC0102C0440F551F6A95E2F7BA01609577
S11307C062236ABB80E0089527B381E090E0AC0126
S11307D002C0440F551F6A95E2F7BA01609562237F
S11307E067BB80E0089524B381E090E0AC0102C0CF
S11307F0440F551F6A95E2F7BA016095622364BB02
S113080080E0089521B381E090E0AC0102C0440F80
S1130810551F6A95E2F7BA016095622361BB80E0D7
S1130820089581E0089581E0089581E0089581E0CC
S11308300895813051F0813028F0823049F08330BE
S113084069F409C06BBB80E0089568BB80E008953B
S113085065BB80E0089562BB80E0089581E008955F
S1130860683008F08EC0413009F042C08130B1F0E8
S1130870813030F0823001F1833009F084C02AC025
S11308802BB381E090E0AC0102C0440F551F6A9580
S1130890E2F7BA01622B6BBB80E0089528B381E0D4
S11308A090E0AC0102C0440F551F6A95E2F7BA010B
S11308B0622B68BB80E0089525B381E090E0AC0131
S11308C002C0440F551F6A95E2F7BA01622B65BB5B
S11308D080E0089522B381E090E0AC0102C0440FAF
S11308E0551F6A95E2F7BA01622B62BB80E0089556
S11308F0442309F04AC08130B9F0813030F08230AD
S113090011F1833009F043C02DC02BB381E090E096
S1130910AC0102C0440F551F6A95E2F7BA01609515
S113092062236BBB80E0089528B381E090E0AC01C2
S113093002C0440F551F6A95E2F7BA01609562231D
S113094068BB80E0089525B381E090E0AC0102C06B
S1130950440F551F6A95E2F7BA016095622365BB9F
S113096080E0089522B381E090E0AC0102C0440F1E
S1130970551F6A95E2F7BA016095622362BB80E075
S1130980089581E0089581E0089581E0089581E06B
S1130990089561157105E9F0813061F0813028F026
S11309A0823069F08330B9F40FC089B3FB018083CE
S11309B080E0089586B3FB01808380E0089583B3CB
S11309C0FB01808380E0089580B3FB01808380E095
S11309D0089581E0089581E008954115510509F4D1
S11309E045C0683008F044C08130B1F0813030F047
S11309F0823001F1833009F03DC02AC089B390E010
S1130A009C0102C0359527956A95E2F7B90161709A
S1130A10FA01608380E0089586B390E09C0102C0EF
S1130A20359527956A95E2F7B9016170FA016083FB
S1130A3080E0089583B390E09C0102C0359527952A
S1130A406A95E2F7B9016170FA01608380E0089564
S1130A5080B390E09C0102C0359527956A95E2F732
S1130A60B9016170FA01608380E0089581E008951E
S1130A7081E0089581E00895683008F042C0813033
S1130A80B1F0813030F0823001F1833009F03BC0A5
S1130A902AC02BB381E090E0AC0102C0440F551F83
S1130AA06A95E2F7BA0162276BBB80E0089528B328
S1130AB081E090E0AC0102C0440F551F6A95E2F753
S1130AC0BA01622768BB80E0089525B381E090E015
S1130AD0AC0102C0440F551F6A95E2F7BA016227C0
S1130AE065BB80E0089522B381E090E0AC0102C0D0
S1130AF0440F551F6A95E2F7BA01622762BB80E092
S1130B00089581E0089581E00895683008F06AC08E
S1130B10813001F1813030F08230A1F1833009F06D
S1130B2063C048C08AB390E0062E02C095958795AD
S1130B300A94E2F780FD5AC02BB381E090E0AC0147
S1130B4002C0440F551F6A95E2F7BA01622B6BBBD2
S1130B5080E0089587B390E0062E02C095958795AE
S1130B600A94E2F780FD44C028B381E090E0AC0130
S1130B7002C0440F551F6A95E2F7BA01622B68BBA5
S1130B8080E0089584B390E0062E02C09595879581
S1130B900A94E2F780FD2EC025B381E090E0AC0119
S1130BA002C0440F551F6A95E2F7BA01622B65BB78
S1130BB080E0089581B390E0062E02C09595879554
S1130BC00A94E2F780FD18C022B381E090E0AC0102
S1130BD002C0440F551F6A95E2F7BA01622B62BB4B
S1130BE080E0089581E0089581E0089581E008950A
S1130BF081E0089581E0089581E0089580917D0069
S1130C0060917E000E943C05089580917B00609174
S1130C107C000E943C0508951F93CF93DF93182F07
S1130C20C82FD0E0CC0FDD1FDE01A558BF4FFE0159
S1130C30E458FF4F8C91608141E00E948003C158C9
S1130C40DF4F88819981612F0E944206DF91CF9105
S1130C501F910895CF93C82FE82FF0E0EE0FFF1FE8
S1130C60DF01A558BF4FE458FF4F8C91608140E0ED
S1130C700E9430048C2F0E946B06CF9108950E942D
S1130C804B060895E62FF0E0EE0FFF1FE857FF4FE5
S1130C90918380830895882371F412BE60956CBF9C
S1130CA089B7826089BF83B7806483BF83B7887F35
S1130CB0846083BF0895813069F414BC609563BD7A
S1130CC089B7806889BF85B5806485BD85B5887F0F
S1130CD0866085BD0895882321F483B7887F83BF08
S1130CE00895813019F485B5887F85BD08951F92D4
S1130CF00F920FB60F9211242F933F934F935F934C
S1130D006F937F938F939F93AF93BF93EF93FF93CF
S1130D1088B7816088BFE0918800F09189000995C7
S1130D20FF91EF91BF91AF919F918F917F916F91BF
S1130D305F914F913F912F910F900FBE0F901F9095
S1130D4018951F920F920FB60F9211242F933F9371
S1130D504F935F936F937F938F939F93AF93BF93BF
S1130D60EF93FF9388B7806488BFE0918A00F09185
S1130D708B000995FF91EF91BF91AF919F918F9156
S1130D807F916F915F914F913F912F910F900FBE83
S1130D900F901F9018951F920F920FB60F92112467
S1130DA02F933F934F935F936F937F938F939F936F
S1130DB0AF93BF93EF93FF9388B7826088BFE091AE
S1130DC08800F09189000995FF91EF91BF91AF914F
S1130DD09F918F917F916F915F914F913F912F914F
S1130DE00F900FBE0F901F9018951F920F920FB681
S1130DF00F9211242F933F934F935F936F937F939D
S1130E008F939F93AF93BF93EF93FF9388B78068BB
S1130E1088BFE0918A00F0918B000995FF91EF91D2
S1130E20BF91AF919F918F917F916F915F914F91FE
S1130E303F912F910F900FBE0F901F901895F8942B
S1050E40FFCFDE
S1130E420A0B4D9AE602050206020701020202009B
S1130E520103020306030303070001030403050558
S1070E6206FE05007F
S9030000FC
