S010000041546D65676133322E7372656380
S11300000C942A000C9447000C9447000C9447006D
S11300100C9491040C9447000C9447000C944700F2
S11300200C9447000C9447000C944F040C94470024
S11300300C9447000C9447000C9447000C94470020
S11300400C9447000C9447000C9447000C94470010
S11300500C94470011241FBECFE5D8E0DEBFCDBF0E
S113006010E0A0E6B0E0EAEDF9E002C005900D92E0
S1130070A437B107D9F720E0A4E7B0E001C01D928E
S1130080A338B207E1F70E9449000C94EB040C94E6
S11300900000CF93DF931F92CDB7DEB719820E9481
S11300A0E700789410E011110DC00E94D501811170
S11300B009C04AE650E060E081E00E94900211E04D
S11300C0811110E0CE0101960E94FC004981442375
S11300D051F360E082E00E948302E5CF81E08093E7
S11300E0760008955F926F927F928F929F92AF9263
S11300F0BF92CF92DF92EF92FF920F931F93CF9311
S1130100DF931F92CDB7DEB74C011982FC01108238
S1130110E12CF12CCC24C394D12C3701C7010296D5
S1130120960102C0220F331F8A95E2F72C71522EDA
S113013040E0622F81E00E94BC0300E010E0C801AF
S11301400596B60102C0660F771F8A95E2F7607EB6
S1130150AE014F5F5F4F81E00E94EA038981811104
S113016013C0C301880F991F860D971D805A9F4F96
S1130170FC01E00FF11F8081F401808341E0652DD3
S113018081E00E94BC0312C00F5F1F4F03301105B2
S1130190B1F641E0652D81E00E94BC03FFEFEF1A48
S11301A0FF0A23E0E216F10409F0B7CF0F90DF91C4
S11301B0CF911F910F91FF90EF90DF90CF90BF9060
S11301C0AF909F908F907F906F905F90089541E0E3
S11301D06CE181E00E949B0341E06CE181E00E94BC
S11301E0BC0340E060EE81E00E949B0341E060EECE
S11301F081E00E94BC030895CF93DF93EC018091CA
S11302007600813001F118F08230C9F13FC044E139
S11302106EE670E080E00E940604811110C085E75C
S113022090E00E94720080917500882321F083E0A1
S1130230809376002BC082E08093760027C082E012
S11302408093760023C084E790E00E94720080913E
S113025074009091750089130EC0882341F088833F
S11302601092750010927400109276000FC082E014
S1130270809376000BC082E08093760007C080E014
S11302800E940004811102C01092760080917600D1
S1130290DF91CF91089510927800089561E08BE189
S11302A00E94250360E08BE10E9425030895CF930B
S11302B0DF93D0916900D11125C0C82F60E089E196
S11302C00E94250360E08AE10E9425039C2F907F11
S11302D08BB38F70892B8BBB0E944E018C2F829520
S11302E0807FCBB3CF708C2B8BBB0E944E0128E256
S11302F030E040E050E060E070E080E090E00E9498
S11303009F0201C0D1E08D2FDF91CF9108958130FC
S113031029F480E8860F0E9457010895823029F459
S113032080EC860F0E9457010895833029F480E9F8
S1130330860F0E9457010895843029F480ED860FBA
S11303400E945701089581E00895CF93DF93D091DF
S11303506900D11125C0C82F61E089E10E942503FD
S113036060E08AE10E9425039C2F907F8BB38F70FD
S1130370892B8BBB0E944E018C2F8295807FCBB33F
S1130380CF708C2B8BBB0E944E0128E230E040E002
S113039050E060E070E080E090E00E949F0201C0C5
S11303A0D1E08D2FDF91CF910895CF938091780084
S11303B08F3F09F487C080917800811185C081E066
S11303C080937800809177008230E1F128F48823CB
S11303D061F0813029F17AC0843009F459C008F4FD
S11303E044C08F3F09F467C071C041E060EF83E00F
S11303F00E949B0361E08AE10E94D10261E089E1ED
S11304000E94D10261E08BE10E94D10244E66BE4D8
S113041071E081E00E94060481E08093770057C078
S11304201092690082E00E945701C2E0C093690003
S113043041E06BE471E081E00E940604C093770020
S113044081E045C01092690088E20E94570182E071
S11304508093690041E06BE471E081E00E9406044E
S113046083E08093770081E032C0109269008CE0D1
S11304700E94570182E08093690041E06BE471E0DF
S113048081E00E94060484E08093770081E01FC02D
S11304901092690081E00E94570182E08093690014
S11304A045E06BE471E081E00E9406048FEF8093E5
S11304B0770081E00CC0109269008FEF8093780080
S11304C081E005C080E003C081E001C081E0CF91FC
S11304D008950F931F93CF93FC018081882379F0B3
S11304E08F01C0E00E94A501811108C0CF5FF8010F
S11304F0EC0FF11D80818111F5CF01C081E0CF9116
S11305001F910F910895CF93C42F0E9487018111E9
S113051004C08C2F0E94A50101C081E0CF910895F1
S1130520CF93DF93EA010E948701811104C0CE01B9
S11305300E94690201C081E0DF91CF910895FF928A
S11305400F931F93CF93DF93F22E032F142FD52FE6
S1130550C62FB72FF82FE92FA0E00E94DF04D9F0AF
S113056082E08A95F1F700C02F2D302F412F5D2FA7
S11305706C2F7B2F8F2F9E2FAFEF0E94D304F22E70
S1130580032F142FD52FC62FB72FF82FE92FA0E054
S11305900E94DF0429F7DF91CF911F910F91FF9003
S11305A00895EF92FF920F931F93803208F045C095
S11305B0611121C0E82FE695E695E6952E2F30E0EF
S11305C0F901EE0FFF1FE20FF31F21A9877041E02D
S11305D050E060E070E07A018B0104C0EE0CFF1C77
S11305E0001F111F8A95D2F7D801C7018095822375
S11305F081AB80E025C0613011F5E82FE695E695E2
S1130600E6952E2F30E0F901EE0FFF1FE20FF31FE6
S113061021A9877041E050E060E070E07A018B012D
S113062004C0EE0CFF1C001F111F8A95D2F7D801DD
S1130630C701822B81AB80E003C082E001C083E06C
S11306401F910F91FF90EF900895EF92FF920F93F7
S11306501F93803208F067C0611121C0E82FE6952E
S1130660E695E6952E2F30E0F901EE0FFF1FE20F1D
S1130670F31F22A9877041E050E060E070E07A0146
S11306808B0104C0EE0CFF1C001F111F8A95D2F7CA
S1130690D801C7018095822382AB80E047C06130D6
S11306A001F5E82FE695E695E6952E2F30E0F90161
S11306B0EE0FFF1FE20FF31F22A9877041E050E005
S11306C060E070E07A018B0104C0EE0CFF1C001F97
S11306D0111F8A95D2F7D801C701822B82AB80E023
S11306E025C0623011F5E82FE695E695E6952E2FA4
S11306F030E0F901EE0FFF1FE20FF31F22A987700C
S113070041E050E060E070E07A018B0104C0EE0C3F
S1130710FF1C001F111F8A95D2F7D801C701822739
S113072082AB80E003C082E001C084E01F910F919E
S1130730FF90EF9008958430D8F441110CC090E0FC
S1130740FC01EE0FFF1FE80FF91F81A960956823D4
S113075061AB80E00895413069F490E0FC01EE0F54
S1130760FF1FE80FF91F81A9682B61AB80E0089592
S113077082E0089583E00895843040F541110CC06F
S113078090E0FC01EE0FFF1FE80FF91F82A96095AE
S1130790682362AB80E00895413059F490E0FC0195
S11307A0EE0FFF1FE80FF91F82A9682B62AB80E0F0
S11307B00895423069F490E0FC01EE0FFF1FE80F4A
S11307C0F91F82A9682762AB80E0089582E008954A
S11307D084E00895843080F44115510579F090E067
S11307E09C01220F331FF901E80FF91F80A9682328
S11307F0FA01608380E0089582E0089585E0089519
S1130800E82FF0E0E758FF4F8081089561157105E6
S113081009F43FC0E82FF0E0E758FF4F90819111B1
S11308203AC081111AC082E08093790083B788604E
S113083083BF8DE78CBF7093800060937F004093EB
S11308407D0010927B0012BE89B7826089BF83B796
S1130850887F836083BF80E008958130F1F482E073
S113086080937A0085B5886085BD8DE783BD7093DC
S113087082006093810040937E0010927C0014BC3F
S113088089B7806889BF85B5887F846085BD80E02D
S1130890089581E0089582E0089580E008951F920C
S11308A00F920FB60F9211242F933F934F935F93A0
S11308B06F937F938F939F93AF93BF93EF93FF9324
S11308C088B7826088BFEBE7F0E080818F5F808328
S11308D0908180917D00981798F089B78D7F89BFAA
S11308E083B7887F83BF1092790080917F009091B5
S11308F08000892B29F0E0917F00F0918000099518
S1130900FF91EF91BF91AF919F918F917F916F91E3
S11309105F914F913F912F910F900FBE0F901F90B9
S113092018951F920F920FB60F9211242F933F9395
S11309304F935F936F937F938F939F93AF93BF93E3
S1130940EF93FF9388B7806888BFEBE7F0E081817D
S11309508F5F8183918180917E00981798F089B789
S11309608F7789BF85B5887F85BD10927A00809185
S1130970810090918200892B29F0E0918100F0910F
S113098082000995FF91EF91BF91AF919F918F9153
S11309907F916F915F914F913F912F910F900FBE77
S11309A00F901F9018950024A7FD00942A0F301D66
S11309B0401D501D601D701D801D901D0895002454
S11309C0A7FD00942A173005400550056005700501
S10D09D0800590050895F894FFCF08
S11309DA31323334353637383902537072696E74AA
S10709EA20370000AE
S9030000FC
