S0180000456D6265646465645F4C6576656C5F312E737265631B
S11300000C942A000C9447000C9447000C9447006D
S11300100C946E0B0C94250A0C9447000C94470026
S11300200C9447000C9447000C94360B0C94140960
S11300300C9447000C9447000C9447000C94470020
S11300400C9447000C9447000C9447000C94470010
S11300500C94470011241FBECFE5D8E0DEBFCDBF0E
S113006010E0A0E6B0E0EAEAFAE102C005900D92E1
S1130070AA37B107D9F710E0AAE7B0E001C01D9292
S1130080AA3BB107E1F70E942D020C94530D0C9486
S11300900000CF93DF930F92CDB7DEB7198281E0D2
S11300A00E94A10082E00E94DB01789481E0BE01FD
S11300B06F5F7F4F0E94CE0089818130B9F781E064
S11300C0BE016F5F7F4F0E94CE0089818130B9F3FA
S11300D082E00E941B02EACF81E00E94DB01789457
S11300E081E00E941B0280E044EF51E060E070E098
S11300F00E94190581E00E941B0280E04CE251E05D
S113010060E070E00E941905EBCF80E00E941B02C2
S1130110089580E00E94DB0180E065E870E024EF50
S113012031E040E050E00F2EFCE2EF2EF1E0FF2E34
S1130130F0E00F2FF0E01F2FF02D0E949707789426
S1130140FFCFEF92FF920F931F93CF938230F8F477
S1130150E82EFF248701000F111FF801E05AFF4F1A
S1130160808160E00E945D02C82FF801EF59FF4FC3
S11301708081813039F4F801E05AFF4F80810E9478
S11301803202C82B81E0CC2319F480E001C081E065
S1130190CF911F910F91FF90EF900895CF92DF922E
S11301A0EF92FF920F931F93CF93DF9300D0CDB7BD
S11301B0DEB77B018230E8F561157105E1F1C82EE7
S11301C0DD248601000F111F005A1F4FF8018081A2
S11301D0BE016F5F7F4F0E942203F8018081BE0140
S11301E06E5F7F4F0E9422038A8199818917E9F407
S11301F0F601EE0FFF1FEF59FF4F9081992351F441
S1130200882319F4F701108217C081E0F701808375
S113021080E012C0813021F4F701108280E00CC02C
S113022081E0F701808380E007C0F701108280E05D
S113023003C081E001C082E00F900F90DF91CF9165
S11302401F910F91FF90EF90DF90CF900895EF9260
S1130250FF920F931F93CF93DF93833038F5E82EEB
S1130260FF24F701EC59FF4F80810E943404870179
S1130270000F111FE801CA59DF4F888161E00E9415
S11302805D02888160E00E94AF02E801C959DF4F36
S1130290888161E00E945D02888160E00E94AF0273
S11302A0F701E658FF4F108280E001C081E0DF9142
S11302B0CF911F910F91FF90EF9008950F931F938B
S11302C0CF93DF938330F0F4082F10E0F801EC595A
S11302D0FF4F80810E947804E801CC0FDD1FFE01EE
S11302E0EA59FF4F808160E00E94AF02C959DF4F95
S11302F0888160E00E94AF02F801E658FF4F108247
S113030080E001C081E0DF91CF911F910F910895AA
S1130310EF92FF921F93CF93DF93D82FC62F142F02
S1130320833008F03FC00E945E01ED2EFF24F701E8
S1130330E458FF4FC083F701E658FF4F80818823BC
S113034099F5CC2389F4E701CC0FDD1FFE01E959AF
S1130350FF4F808160E00E94AF02CA59DF4F88815D
S113036061E00E94AF0210C0E701CC0FDD1FFE0167
S1130370EA59FF4F808160E00E94AF02C959DF4F04
S1130380888161E00E94AF02F701E658FF4F81E0E7
S11303908083F701EC59FF4F8081612F0E94910403
S11303A080E003C081E001C080E0DF91CF911F9124
S11303B0FF90EF9008951F93CF93DF93843090F4D0
S11303C0C82FD0E0C659DF4F888161E00E945D02EA
S11303D0182F888160E00E94AF02182B81E019F485
S11303E080E001C081E0DF91CF911F9108958430B6
S11303F068F4E82FF0E0E659FF4F808161E00E9445
S1130400AF0291E0882319F490E001C091E0892FB4
S11304100895843068F4E82FF0E0E659FF4F8081B6
S113042060E00E94AF0291E0882319F490E001C0DB
S113043091E0892F0895843068F4E82FF0E0E659BC
S1130440FF4F808162E00E94AF0291E0882319F49B
S113045090E001C091E0892F08950E94890080E016
S113046090E00895EF92FF920F931F938032F8F477
S1130470282F26952695269530E0F901EE0FFF1FCB
S1130480E20FF31F22A9877041E050E060E070E0C2
S11304907A018B0104C0EE0CFF1C001F111F8A950A
S11304A0D2F7D801C701822B82AB80E001C082E081
S11304B01F910F91FF90EF900895EF92FF920F9389
S11304C01F93803208F043C0662301F5282F269538
S11304D02695269530E0F901EE0FFF1FE20FF31F7A
S11304E021A9877041E050E060E070E07A018B015F
S11304F004C0EE0CFF1C001F111F8A95D2F7D8010F
S1130500C7018095822381AB80E024C0613009F566
S1130510282F26952695269530E0F901EE0FFF1F2A
S1130520E20FF31F21A9877041E050E060E070E022
S11305307A018B0104C0EE0CFF1C001F111F8A9569
S1130540D2F7D801C701822B81AB80E003C082E0DF
S113055001C083E01F910F91FF90EF900895EF92F7
S1130560FF920F931F93803208F064C0662301F555
S1130570282F26952695269530E0F901EE0FFF1FCA
S1130580E20FF31F22A9877041E050E060E070E0C1
S11305907A018B0104C0EE0CFF1C001F111F8A9509
S11305A0D2F7D801C7018095822382AB80E045C091
S11305B06130F9F4282F26952695269530E0F90127
S11305C0EE0FFF1FE20FF31F22A9877041E050E0F6
S11305D060E070E07A018B0104C0EE0CFF1C001F88
S11305E0111F8A95D2F7D801C701822B82AB80E014
S11305F024C0623009F5282F26952695269530E0EB
S1130600F901EE0FFF1FE20FF31F22A9877041E0EB
S113061050E060E070E07A018B0104C0EE0CFF1C36
S1130620001F111F8A95D2F7D801C701822782AB18
S113063080E003C082E001C084E01F910F91FF902D
S1130640EF9008958032E8F461157105E1F0282FE8
S113065026952695269530E0A901440F551F240FB1
S1130660351FF90120A930E08770A90102C0559512
S113067047958A95E2F7CA018170FB01808380E087
S1130680089582E0089585E00895843058F490E058
S11306909C01220F331F820F931F2FEFFC0122AB0B
S11306A080E0089582E008958430C8F4662351F40C
S11306B090E09C01220F331F820F931FFC0111AAAB
S11306C080E00895613069F490E09C01220F331FAB
S11306D0820F931F2FEFFC0121AB80E0089582E08D
S11306E0089583E00895843030F5662351F490E052
S11306F09C01220F331F820F931FFC0112AA80E07A
S11307000895613059F490E09C01220F331F820F49
S1130710931F2FEFFC0122AB80E00895623069F44F
S113072090E0FC01EE0FFF1FE80FF91F82A98095EE
S113073082AB80E0089582E0089584E008958430D7
S113074078F46115710571F090E09C01220F331F5C
S1130750820F931FFC0180A9FB01808380E0089530
S113076082E0089585E00895843058F490E0FC0117
S1130770EE0FFF1FE80FF91F82A9682B62AB80E020
S1130780089582E008958430D8F4442361F490E01D
S1130790FC01EE0FFF1FE80FF91F81A96095682384
S11307A061AB80E00895413069F490E0FC01EE0F04
S11307B0FF1FE80FF91F81A9682B61AB80E0089542
S11307C082E0089583E00895843040F5442361F481
S11307D090E0FC01EE0FFF1FE80FF91F82A960955E
S11307E0682362AB80E00895413059F490E0FC0145
S11307F0EE0FFF1FE80FF91F82A9682B62AB80E0A0
S11308000895423069F490E0FC01EE0FFF1FE80FF9
S1130810F91F82A9682762AB80E0089582E00895F9
S113082084E00895843080F44115510579F090E016
S11308309C01220F331F820F931FFC0180A96823A0
S1130840FA01608380E0089582E0089585E00895C8
S11308508091750062E00E94AF0208958091720059
S113086062E00E94AF020895EF92FF920F931F93EC
S1130870CF93DF9300D000D00F92CDB7DEB7823094
S113088040F5E82EFF24F701EE0FFF1FEE0DFF1DCC
S1130890EE58FF4F808161E00E945D028823D9F405
S11308A08701000F111FF801E259FF4F6081718128
S11308B00E0D1F1D0E581F4FF80181810E94AF08B5
S11308C0F80182818B83CE0101960E943C0780E06F
S11308D003C081E001C082E00F900F900F900F9051
S11308E00F90DF91CF911F910F91FF90EF9008959A
S11308F0CF93DF93823088F490E0EC01CC0FDD1FBE
S1130900C80FD91FCE58DF4F89810E94BE04888149
S113091060E00E94AF0280E001C081E0DF91CF91EE
S11309200895CF93DF93823088F490E0EC01CC0FEC
S1130930DD1FC80FD91FCE58DF4F89814A810E941D
S1130940BD0889810E94AA0480E001C081E0DF9192
S1130950CF910895882341F49091B800977083B79C
S1130960887F892B83BF0895813039F49091B90031
S1130970977085B5887F892B85BD0895882321F4D8
S113098083B7887F83BF0895813019F485B5887F44
S113099085BD08950F931F93CF93DF93EC01062F2A
S11309A0142F0097C1F080E00E94BE0483B78860D2
S11309B083BF83B78F7B83BFD093B700C093B60048
S11309C00CBF89B7826089BF177083B7887F182BE3
S11309D013BF80E001C081E0DF91CF911F910F919F
S11309E00895882391F41092A2001092A30010920B
S11309F0A4001092A5001092A6001092A7001092D5
S1130A00A8001092A90012BE0895813089F41092B2
S1130A10AA001092AB001092AC001092AD0010929C
S1130A20AE001092AF001092B0001092B10014BC4E
S1130A3008954F925F926F927F928F929F92AF929E
S1130A40BF92CF92DF92EF92FF920F931F93CF93B7
S1130A50DF936A017B01882309F0E9C083B7877FAC
S1130A6083BF83B78F7B83BF83B78F7C83BF80E0D3
S1130A700E94F10489B7816089BF83B7887F816050
S1130A8083BFC701B60120E43FE140E050E00E948B
S1130A90340DDC01CB013C014D01AA24BB246501CA
S1130AA00F2EF2EAEF2EF0E0FF2EF02DC1E0D0E0A1
S1130AB0F70120813181428153816481758186816E
S1130AC0978112B708E00E94980B120FFC2F12179F
S1130AD008F0FD2F032FED2F3F0F2C2F301708F0B8
S1130AE02D2FE22B032FB42F2D2F4E0FEC2F4B174E
S1130AF008F0ED2F2E2BB42FA52FED2F520F2C2FF6
S1130B005A1708F02D2FE22BA52FF62F2D2F6E0F3D
S1130B10EC2F6F1708F0ED2F2E2BF62FE72F5D2EFD
S1130B20720F2C2F7E1708F02D2F522AE72F282F13
S1130B304D2E850D5C2E821708F05D2E4528282F3A
S1130B40940D512E53944C2E511608F04D2E1C2FFB
S1130B50301708F01D2F430E0C2F431608F00D2FED
S1130B60102B342D0C2F4B1708F00D2F140FBC2F06
S1130B70141708F0BD2F0B2B412FBC2F5A1708F068
S1130B80BD2F050FAC2F051708F0AD2FBA2B502F32
S1130B90AC2F6F1708F0AD2FB60FFC2FB61708F067
S1130BA0FD2FAF2B6B2FFC2F7E1708F0FD2FA70F07
S1130BB0EC2FA71708F0ED2FFE2B7A2F4C2E82175F
S1130BC008F04D2EF80F2C2FF81708F02D2F422A7D
S1130BD0940D9D1508F46CCFD91609F00CC1FC15C1
S1130BE008F466CFCF1609F006C17B1508F460CF70
S1130BF0B71609F000C16A1508F45ACFA61609F011
S1130C00FAC0591508F454CF951609F0F4C04815E4
S1130C1008F44ECF841609F0EEC0371508F448CF17
S1130C20731609F0E8C0561408F442CFE4C08130CA
S1130C3009F0E1C085B5877F85BD85B58F7B85BD0E
S1130C4085B58F7C85BD81E00E94F10489B78064FD
S1130C5089BF85B5887F816085BDC701B60120E461
S1130C603FE140E050E00E94340DDC01CB013C0147
S1130C704D01AA24BB2465010F2EFAEAEF2EF0E001
S1130C80FF2EF02DC1E0D0E0F701208131814281B7
S1130C905381648175818681978114B508E00E942F
S1130CA0980B120FFC2F121708F0FD2F032FED2FB6
S1130CB03F0F2C2F301708F02D2FE22B032FB42FCA
S1130CC02D2F4E0FEC2F4B1708F0ED2F2E2BB42F9A
S1130CD0A52FED2F520F2C2F5A1708F02D2FE22B92
S1130CE0A52FF62F2D2F6E0FEC2F6F1708F0ED2F79
S1130CF02E2BF62FE72F5D2E720F2C2F7E1708F068
S1130D002D2F522AE72F282F4D2E850D5C2E82176A
S1130D1008F05D2E4528282F940D512E53944C2E07
S1130D20511608F04D2E1C2F301708F01D2F430EBE
S1130D300C2F431608F00D2F102B342D0C2F4B17AE
S1130D4008F00D2F140FBC2F141708F0BD2F0B2B18
S1130D50412FBC2F5A1708F0BD2F050FAC2F0517D4
S1130D6008F0AD2FBA2B502FAC2F6F1708F0AD2F12
S1130D70B60FFC2FB61708F0FD2FAF2B6B2FFC2FEF
S1130D807E1708F0FD2FA70FEC2FA71708F0ED2F03
S1130D90FE2B7A2F4C2E821708F04D2EF80F2C2F95
S1130DA0F81708F02D2F422A940D9D1508F46CCFE6
S1130DB0D91609F5FC1508F467CFCF16E1F47B15B5
S1130DC008F462CFB716B9F46A1508F45DCFA61615
S1130DD091F4591508F458CF951669F4481508F498
S1130DE053CF841641F4371508F44ECF731619F413
S1130DF0561408F449CFDF91CF911F910F91FF90C2
S1130E00EF90DF90CF90BF90AF909F908F907F90A6
S1130E106F905F904F9008958823B1F40E94BE04B0
S1130E2080E00E94F10489B78D7F89BF89B78E7FE6
S1130E3089BF83B7877F83BF83B78F7B83BF83B724
S1130E408F7C83BF1CBE08958130A9F40E94BE0428
S1130E5081E00E94F10489B78F7789BF89B78F7BBE
S1130E6089BF85B5877F85BD85B58F7B85BD85B5F4
S1130E708F7C85BD13BC0895CF93DF93EC0100975D
S1130E8009F44FC08881882329F50E94BE04888113
S1130E900E94F1049981990F990F987083B7877F05
S1130EA0892B83BF83B78F7B83BF83B7887F83BF3F
S1130EB09B8193709295907F83B78F7C892B83BF9E
S1130EC08C818CBFE881F0E0E854FF4F8A818083F5
S1130ED080E02AC0813039F50E94BE0488810E94D6
S1130EE0F1049981990F990F987085B5877F892BA3
S1130EF085BD85B58F7B85BD85B5887F85BD9B8187
S1130F0093709295907F85B58F7C892B85BD8C815C
S1130F1083BDE881F0E0E854FF4F8A81808380E05C
S1130F2003C081E001C082E0DF91CF910895EF9288
S1130F30FF920F931F93CF93DF93A82FFB01CA0156
S1130F40B901309709F4B0C0AA2309F055C023B7FA
S1130F50277F23BF23B72F7B23BF23B72F7C23BF38
S1130F60F093B300E093B2001092A2001092A30099
S1130F701092A4001092A5001092A6001092A7004F
S1130F801092A8001092A90028EE33E040E050E04F
S1130F900E94340DDC01CB01892F9A2FAB2FBB2784
S1130FA08093820090938300A0938400B093850083
S1130FB01092860010928700109288001092890087
S1130FC0C801B7010E94340D072F182F292F33278A
S1130FD0EAE8F0E000938A001183228333831482C9
S1130FE015821682178289B7816089BF83B7887F8B
S1130FF0826083BF80E05BC0A13009F057C025B593
S1131000277F25BD25B52F7B25BD25B52F7C25BD87
S1131010F093B500E093B4001092AA001092AB00D4
S11310201092AC001092AD001092AE001092AF007E
S11310301092B0001092B10028EE33E040E050E08E
S11310400E94340DDC01CB01892F9A2FAB2FBB27D3
S11310508093920090939300A0939400B093950092
S11310601092960010929700109298001092990096
S1131070C801B7010E94340D072F182F292F3327D9
S1131080EAE9F0E000939A00118322833383148207
S113109015821682178289B7806489BF85B5887FD7
S11310A0826085BD80E003C081E001C080E0DF9103
S11310B0CF911F910F91FF90EF900895882339F5F8
S11310C083B7877F83BF83B7806483BF643618F098
S11310D08FEF8CBF14C070E080E090E02FEF30E021
S11310E040E050E00E94340D0E94A60C20E030E065
S11310F048EC52E40E94120C0E947A0C6CBF89B72F
S11311008D7F89BF83B7887F856083BF08958130D1
S113111029F585B5877F85BD85B5806485BD643631
S113112018F08FEF83BD14C070E080E090E02FEFE3
S113113030E040E050E00E94340D0E94A60C20E014
S113114030E048EC52E40E94120C0E947A0C63BD19
S113115089B78F7789BF85B5876085BD0895882352
S113116029F470937F0060937E000895813021F408
S113117070938100609380000895CF93C42F8823D7
S113118041F583B7877F83BF83B7806483BF6436A9
S113119018F08FEF8CBF14C070E080E090E02FEF68
S11311A030E040E050E00E94340D0E94A60C20E0A4
S11311B030E048EC52E40E94120C0E947A0C6CBF9E
S11311C089B78D7F89BFC77083B7887FC82BC3BF9A
S11311D029C0813039F585B5877F85BD85B58064A3
S11311E085BD643618F08FEF83BD14C070E080E0D5
S11311F090E02FEF30E040E050E00E94340D0E9478
S1131200A60C20E030E048EC52E40E94120C0E944C
S11312107A0C63BD89B78F7789BFC77085B5887F1E
S1131220C82BC5BDCF9108951F920F920FB60F9290
S11312301124FF920F931F932F933F934F935F9328
S11312406F937F938F939F93AF93BF93CF93DF93CA
S1131250EF93FF9388B7816088BF5091A2004091BB
S1131260A3003091A4002091A5009091A600F091D4
S1131270A700E091A800A091A900752F7F5F61E00D
S1131280751708F060E0842F50E0640F41E06817A0
S113129008F040E0542B832F40E0530F31E05817FF
S11312A008F030E0432B822F30E0420F21E0481752
S11312B008F020E0322B892F20E0390F91E0381715
S11312C008F090E0292B8F2F90E02F0FF1E02817E2
S11312D008F0F0E09F2BFE2F80E09E0FE1E09F17C7
S11312E008F0E0E08E2B8A0F7093A2006093A300B5
S11312F05093A4004093A5003093A6002093A70028
S11313009093A8008093A9009091A2003091A3002B
S11313105091A4007091A500F090A6001091A70030
S1131320C091A800A091A900E0917800F0E0EE0F30
S1131330FF1FEE0FFF1FEE0FFF1FEE57FF4F8081C1
S11313402181428163810481D581B681E781981727
S113135009F065C0321709F062C0541709F05FC084
S1131360761709F05CC0F01609F059C01D1709F092
S113137056C0CB1709F053C0AE1709F050C01092F5
S1131380A2001092A3001092A4001092A500109243
S1131390A6001092A7001092A8001092A900E09154
S11313A0B200F091B3000995809178008823D1F4BC
S11313B081E08093780020918A0090918B00909135
S11313C08C0090918D0090918E0090918F0090915F
S11313D090009091910098EE299F902D1124891BE3
S11313E082BF1DC0809178008130C9F410927800CA
S11313F09091820080918300809184008091850087
S11314008091860080918700809188008091890076
S113141088EE989F902D112481E0891B82BFFF9153
S1131420EF91DF91CF91BF91AF919F918F917F9178
S11314306F915F914F913F912F911F910F91FF9069
S11314400F900FBE0F901F9018951F920F920FB61A
S11314500F921124FF920F931F932F933F934F9357
S11314605F936F937F938F939F93AF93BF93CF9328
S1131470DF93EF93FF9388B7806488BF5091AA00ED
S11314804091AB003091AC002091AD009091AE0042
S1131490F091AF00E091B000A091B100752F7F5F93
S11314A061E0751708F060E0842F50E0640F41E0BC
S11314B0681708F040E0542B832F40E0530F31E0CD
S11314C0581708F030E0432B822F30E0420F21E020
S11314D0481708F020E0322B892F20E0390F91E0E3
S11314E0381708F090E0292B8F2F90E02F0FF1E0B0
S11314F0281708F0F0E09F2BFE2F80E09E0FE1E01C
S11315009F1708F0E0E08E2B8A0F7093AA00609377
S1131510AB005093AC004093AD003093AE002093E9
S1131520AF009093B0008093B1009091AA003091E5
S1131530AB005091AC007091AD00F090AE001091F2
S1131540AF00C091B000A091B100E0917900F0E04B
S1131550EE0FFF1FEE0FFF1FEE0FFF1FEE56FF4FA4
S113156080812181428163810481D581B681E781B3
S1131570981709F065C0321709F062C0541709F0D2
S11315805FC0761709F05CC0F01609F059C01D174A
S113159009F056C0CB1709F053C0AE1709F050C07C
S11315A01092AA001092AB001092AC001092AD0001
S11315B01092AE001092AF001092B0001092B100E1
S11315C0E091B400F091B5000995809179008823E9
S11315D0D1F481E08093790020919A0090919B004E
S11315E090919C0090919D0090919E0090919F00FD
S11315F09091A0009091A10098EE299F902D112424
S1131600891B82BF1DC0809179008130C9F410927A
S11316107900909192008091930080919400809140
S11316209500809196008091970080919800809118
S1131630990088EE989F902D112481E0891B84BD28
S1131640FF91EF91DF91CF91BF91AF919F918F91D6
S11316507F916F915F914F913F912F911F910F91C6
S1131660FF900F900FBE0F901F9018951F920F922E
S11316700FB60F9211242F933F934F935F936F9361
S11316807F938F939F93AF93BF93EF93FF9388B709
S1131690826088BF8091B6009091B700009741F0B6
S11316A0E091B600F091B700099580E00E94F10442
S11316B0E0917E00F0917F000995FF91EF91BF9139
S11316C0AF919F918F917F916F915F914F913F91D6
S11316D02F910F900FBE0F901F9018951F920F928D
S11316E00FB60F9211242F933F934F935F936F93F1
S11316F07F938F939F93AF93BF93EF93FF9388B799
S1131700806888BFE0918000F09181000995FF9185
S1131710EF91BF91AF919F918F917F916F915F9165
S11317204F913F912F910F900FBE0F901F901895DE
S1131730CF92DF92EF92FF920F93CF93DF93CDB7C7
S1131740DEB760970FB6F894DEBF0FBECDBF00239F
S113175009F45AC029873A874B875C876D877E874F
S11317608F87988B80E2801B49855A856B857C85A1
S11317701816B4F019821A821B821C82992787FDDD
S11317809095909581959F4F04C0440F551F661FF7
S1131790771F8A95D2F74D835E836F8378872CC039
S11317A06A017B01002E04C0CC0CDD1CEE1CFF1C66
S11317B00A94D2F7C982DA82EB82FC826A017B0145
S11317C004C0F694E794D794C7948A95D2F7D701C6
S11317D0C6014D855E856F85788904C0440F551F09
S11317E0661F771F0A95D2F7842B952BA62BB72B50
S11317F08D839E83AF83B88729813A814B815C8135
S11318006D817E818F81988560960FB6F894DEBFD6
S11318100FBECDBFDF91CF910F91FF90EF90DF907E
S1131820CF9008950CD0E6C0DED040F0D5D030F093
S113183021F45F3F19F0C7C0511110C1CAC0EBD0E9
S113184098F39923C9F35523B1F3951B550BBB2783
S1131850AA2762177307840738F09F5F5F4F220F30
S1131860331F441FAA1FA9F333D00E2E3AF0E0E829
S113187030D091505040E695001CCAF729D0FE2F75
S113188027D0660F771F881FBB1F26173707480707
S1131890AB07B0E809F0BB0B802DBF01FF279358BD
S11318A05F4F2AF09E3F510568F08DC0D7C05F3F5F
S11318B0ECF3983EDCF3869577956795B795F795A5
S11318C09F5FC9F7880F911D9695879597F908959D
S11318D0E1E0660F771F881FBB1F62177307840739
S11318E0BA0720F0621B730B840BBA0BEE1F88F748
S11318F0E095089598D088F09F5790F0B92F9927D4
S1131900B751A0F0D1F0660F771F881F991F1AF006
S1131910BA95C9F712C0B13081F09FD0B1E00895F3
S11319209CC0672F782F8827B85F39F0B93FCCF374
S1131930869577956795B395D9F73EF490958095FC
S1131940709561957F4F8F4F9F4F0895E89409C01C
S113195097FB3EF490958095709561957F4F8F4FDE
S11319609F4F9923A9F0F92F96E9BB279395F695F4
S1131970879577956795B795F111F8CFFAF4BB0F72
S113198011F460FF1BC06F5F7F4F8F4F9F4F16C0D6
S1131990882311F096E911C0772321F09EE8872F60
S11319A0762F05C0662371F096E8862F70E060E01C
S11319B02AF09A95660F771F881FDAF7880F969595
S11319C0879597F9089597F99F6780E870E060E03C
S11319D008959FEF80EC089500240A9416161706C4
S11319E018060906089500240A941216130614060C
S11319F005060895092E0394000C11F4882352F06F
S1131A00BB0F40F4BF2B11F460FF04C06F5F7F4F26
S1131A108F4F9F4F089557FD9058440F551F59F00D
S1131A205F3F71F04795880F97FB991F61F09F3FC7
S1131A3079F087950895121613061406551FF2CFF0
S1131A404695F1DF08C0161617061806991FF1CF40
S1131A5086957105610508940895E894BB27662767
S1131A607727CB0197F90895629FD001739FF00106
S1131A70829FE00DF11D649FE00DF11D929FF00D1A
S1131A80839FF00D749FF00D659FF00D9927729F51
S1131A90B00DE11DF91F639FB00DE11DF91FBD01DC
S10D1AA0CF0111240895F894FFCF3C
S1131AAA0C001200000102060307141516172E046F
S10D1ABA28040400020501020100E3
S9030000FC
